{
  "address": "0x5366a157ca0FD369B843Acd1CfB15f31B541ccF3",
  "abi": [
    {
      "inputs": [
        {
          "internalType": "uint64",
          "name": "qId",
          "type": "uint64"
        },
        {
          "internalType": "address",
          "name": "sender",
          "type": "address"
        }
      ],
      "name": "AlreadyAnswered",
      "type": "error"
    },
    {
      "inputs": [
        {
          "internalType": "uint64",
          "name": "queryReqId",
          "type": "uint64"
        }
      ],
      "name": "InvalidQueryRequest",
      "type": "error"
    },
    {
      "inputs": [
        {
          "internalType": "uint64",
          "name": "qId",
          "type": "uint64"
        }
      ],
      "name": "InvalidQuestion",
      "type": "error"
    },
    {
      "inputs": [
        {
          "internalType": "string",
          "name": "reason",
          "type": "string"
        }
      ],
      "name": "InvalidQuestionMetaParam",
      "type": "error"
    },
    {
      "inputs": [
        {
          "internalType": "string",
          "name": "reason",
          "type": "string"
        }
      ],
      "name": "InvalidQuestionParam",
      "type": "error"
    },
    {
      "inputs": [
        {
          "internalType": "uint64",
          "name": "qId",
          "type": "uint64"
        },
        {
          "internalType": "uint256",
          "name": "metaAnsLen",
          "type": "uint256"
        },
        {
          "internalType": "uint256",
          "name": "metaOptLen",
          "type": "uint256"
        }
      ],
      "name": "MetaAnswerNumberNotMatch",
      "type": "error"
    },
    {
      "inputs": [
        {
          "internalType": "uint64",
          "name": "queryReqId",
          "type": "uint64"
        }
      ],
      "name": "NotQueryOwner",
      "type": "error"
    },
    {
      "inputs": [
        {
          "internalType": "uint64",
          "name": "qId",
          "type": "uint64"
        }
      ],
      "name": "NotQuestionAdmin",
      "type": "error"
    },
    {
      "inputs": [
        {
          "internalType": "uint64",
          "name": "queryReqId",
          "type": "uint64"
        }
      ],
      "name": "QueryHasCompleted",
      "type": "error"
    },
    {
      "inputs": [
        {
          "internalType": "uint64",
          "name": "queryReqId",
          "type": "uint64"
        }
      ],
      "name": "QueryNotCompleted",
      "type": "error"
    },
    {
      "inputs": [
        {
          "internalType": "uint64",
          "name": "qId",
          "type": "uint64"
        }
      ],
      "name": "QueryThresholdNotReach",
      "type": "error"
    },
    {
      "inputs": [
        {
          "internalType": "uint64",
          "name": "qId",
          "type": "uint64"
        }
      ],
      "name": "QuestionAlreadyClosed",
      "type": "error"
    },
    {
      "inputs": [
        {
          "internalType": "uint64",
          "name": "qId",
          "type": "uint64"
        }
      ],
      "name": "QuestionNotOpenYet",
      "type": "error"
    },
    {
      "inputs": [
        {
          "internalType": "uint64",
          "name": "qId",
          "type": "uint64"
        },
        {
          "internalType": "address",
          "name": "sender",
          "type": "address"
        }
      ],
      "name": "RejectAnswer",
      "type": "error"
    },
    {
      "anonymous": false,
      "inputs": [
        {
          "indexed": true,
          "internalType": "uint64",
          "name": "qId",
          "type": "uint64"
        },
        {
          "indexed": true,
          "internalType": "address",
          "name": "sender",
          "type": "address"
        }
      ],
      "name": "ConfirmAnswer",
      "type": "event"
    },
    {
      "anonymous": false,
      "inputs": [
        {
          "indexed": false,
          "internalType": "uint64",
          "name": "reqId",
          "type": "uint64"
        }
      ],
      "name": "QueryExecutionCompleted",
      "type": "event"
    },
    {
      "anonymous": false,
      "inputs": [
        {
          "indexed": false,
          "internalType": "uint64",
          "name": "reqId",
          "type": "uint64"
        },
        {
          "indexed": false,
          "internalType": "uint64",
          "name": "accSteps",
          "type": "uint64"
        },
        {
          "indexed": false,
          "internalType": "uint64",
          "name": "ttl",
          "type": "uint64"
        }
      ],
      "name": "QueryExecutionRunning",
      "type": "event"
    },
    {
      "anonymous": false,
      "inputs": [
        {
          "indexed": false,
          "internalType": "uint64",
          "name": "reqId",
          "type": "uint64"
        },
        {
          "indexed": false,
          "internalType": "address",
          "name": "owner",
          "type": "address"
        }
      ],
      "name": "QueryRequestCreated",
      "type": "event"
    },
    {
      "anonymous": false,
      "inputs": [
        {
          "indexed": false,
          "internalType": "uint64",
          "name": "reqId",
          "type": "uint64"
        }
      ],
      "name": "QueryRequestDeleted",
      "type": "event"
    },
    {
      "anonymous": false,
      "inputs": [
        {
          "indexed": true,
          "internalType": "uint64",
          "name": "qId",
          "type": "uint64"
        }
      ],
      "name": "QuestionClosed",
      "type": "event"
    },
    {
      "anonymous": false,
      "inputs": [
        {
          "indexed": true,
          "internalType": "address",
          "name": "sender",
          "type": "address"
        },
        {
          "indexed": true,
          "internalType": "uint64",
          "name": "qId",
          "type": "uint64"
        },
        {
          "indexed": false,
          "internalType": "uint256",
          "name": "startTime",
          "type": "uint256"
        },
        {
          "indexed": false,
          "internalType": "uint256",
          "name": "endTime",
          "type": "uint256"
        }
      ],
      "name": "QuestionCreated",
      "type": "event"
    },
    {
      "inputs": [],
      "name": "MAX_METAS",
      "outputs": [
        {
          "internalType": "uint16",
          "name": "",
          "type": "uint16"
        }
      ],
      "stateMutability": "view",
      "type": "function"
    },
    {
      "inputs": [],
      "name": "STATS_ANS_SIZE",
      "outputs": [
        {
          "internalType": "uint8",
          "name": "",
          "type": "uint8"
        }
      ],
      "stateMutability": "view",
      "type": "function"
    },
    {
      "inputs": [
        {
          "internalType": "uint64",
          "name": "qId",
          "type": "uint64"
        },
        {
          "internalType": "einput",
          "name": "ans",
          "type": "bytes32"
        },
        {
          "internalType": "einput[]",
          "name": "metaAns",
          "type": "bytes32[]"
        },
        {
          "internalType": "bytes",
          "name": "inputProof",
          "type": "bytes"
        }
      ],
      "name": "answer",
      "outputs": [],
      "stateMutability": "nonpayable",
      "type": "function"
    },
    {
      "inputs": [
        {
          "internalType": "uint64",
          "name": "qId",
          "type": "uint64"
        }
      ],
      "name": "closeQuestion",
      "outputs": [],
      "stateMutability": "nonpayable",
      "type": "function"
    },
    {
      "inputs": [
        {
          "internalType": "uint256",
          "name": "reqId",
          "type": "uint256"
        },
        {
          "internalType": "bool",
          "name": "decValid",
          "type": "bool"
        }
      ],
      "name": "confirmOrRejectAnswer",
      "outputs": [],
      "stateMutability": "nonpayable",
      "type": "function"
    },
    {
      "inputs": [
        {
          "internalType": "uint64",
          "name": "reqId",
          "type": "uint64"
        }
      ],
      "name": "deleteQuery",
      "outputs": [],
      "stateMutability": "nonpayable",
      "type": "function"
    },
    {
      "inputs": [
        {
          "internalType": "uint64",
          "name": "reqId",
          "type": "uint64"
        },
        {
          "internalType": "uint32",
          "name": "steps",
          "type": "uint32"
        }
      ],
      "name": "executeQuery",
      "outputs": [],
      "stateMutability": "nonpayable",
      "type": "function"
    },
    {
      "inputs": [
        {
          "internalType": "uint64",
          "name": "qId",
          "type": "uint64"
        }
      ],
      "name": "getAnsLen",
      "outputs": [
        {
          "internalType": "uint256",
          "name": "",
          "type": "uint256"
        }
      ],
      "stateMutability": "view",
      "type": "function"
    },
    {
      "inputs": [
        {
          "internalType": "uint64",
          "name": "reqId",
          "type": "uint64"
        }
      ],
      "name": "getQueryRequest",
      "outputs": [
        {
          "components": [
            {
              "internalType": "uint64",
              "name": "questionId",
              "type": "uint64"
            },
            {
              "internalType": "address",
              "name": "owner",
              "type": "address"
            },
            {
              "components": [
                {
                  "internalType": "uint8",
                  "name": "metaOpt",
                  "type": "uint8"
                },
                {
                  "internalType": "enum IAnalytic.PredicateOp",
                  "name": "op",
                  "type": "uint8"
                },
                {
                  "internalType": "uint32",
                  "name": "metaVal",
                  "type": "uint32"
                }
              ],
              "internalType": "struct IAnalytic.Predicate[]",
              "name": "predicates",
              "type": "tuple[]"
            },
            {
              "internalType": "euint32[]",
              "name": "acc",
              "type": "uint256[]"
            },
            {
              "internalType": "euint32",
              "name": "ansCount",
              "type": "uint256"
            },
            {
              "internalType": "uint32",
              "name": "accSteps",
              "type": "uint32"
            },
            {
              "internalType": "enum IAnalytic.RequestState",
              "name": "state",
              "type": "uint8"
            }
          ],
          "internalType": "struct IAnalytic.QueryRequest",
          "name": "",
          "type": "tuple"
        }
      ],
      "stateMutability": "view",
      "type": "function"
    },
    {
      "inputs": [
        {
          "internalType": "uint64",
          "name": "reqId",
          "type": "uint64"
        }
      ],
      "name": "getQueryResult",
      "outputs": [
        {
          "components": [
            {
              "internalType": "euint32[]",
              "name": "acc",
              "type": "uint256[]"
            },
            {
              "internalType": "euint32",
              "name": "filteredAnsCount",
              "type": "uint256"
            },
            {
              "internalType": "uint32",
              "name": "ttlAnsCount",
              "type": "uint32"
            }
          ],
          "internalType": "struct IAnalytic.QueryResult",
          "name": "",
          "type": "tuple"
        }
      ],
      "stateMutability": "view",
      "type": "function"
    },
    {
      "inputs": [
        {
          "internalType": "uint64",
          "name": "qId",
          "type": "uint64"
        }
      ],
      "name": "getQuestion",
      "outputs": [
        {
          "components": [
            {
              "components": [
                {
                  "internalType": "string",
                  "name": "text",
                  "type": "string"
                },
                {
                  "internalType": "string[]",
                  "name": "options",
                  "type": "string[]"
                },
                {
                  "internalType": "uint32",
                  "name": "min",
                  "type": "uint32"
                },
                {
                  "internalType": "uint32",
                  "name": "max",
                  "type": "uint32"
                },
                {
                  "internalType": "enum QuestionSpecLib.QuestionType",
                  "name": "t",
                  "type": "uint8"
                }
              ],
              "internalType": "struct QuestionSpecLib.QuestionSpec",
              "name": "main",
              "type": "tuple"
            },
            {
              "components": [
                {
                  "internalType": "string",
                  "name": "text",
                  "type": "string"
                },
                {
                  "internalType": "string[]",
                  "name": "options",
                  "type": "string[]"
                },
                {
                  "internalType": "uint32",
                  "name": "min",
                  "type": "uint32"
                },
                {
                  "internalType": "uint32",
                  "name": "max",
                  "type": "uint32"
                },
                {
                  "internalType": "enum QuestionSpecLib.QuestionType",
                  "name": "t",
                  "type": "uint8"
                }
              ],
              "internalType": "struct QuestionSpecLib.QuestionSpec[]",
              "name": "metas",
              "type": "tuple[]"
            },
            {
              "internalType": "uint256",
              "name": "startTime",
              "type": "uint256"
            },
            {
              "internalType": "uint256",
              "name": "endTime",
              "type": "uint256"
            },
            {
              "internalType": "enum IAnalytic.QuestionState",
              "name": "state",
              "type": "uint8"
            },
            {
              "internalType": "uint32",
              "name": "queryThreshold",
              "type": "uint32"
            }
          ],
          "internalType": "struct IAnalytic.Question",
          "name": "",
          "type": "tuple"
        }
      ],
      "stateMutability": "view",
      "type": "function"
    },
    {
      "inputs": [
        {
          "internalType": "address",
          "name": "user",
          "type": "address"
        },
        {
          "internalType": "uint64",
          "name": "qId",
          "type": "uint64"
        }
      ],
      "name": "getUserQueryRequestList",
      "outputs": [
        {
          "internalType": "uint64[]",
          "name": "",
          "type": "uint64[]"
        }
      ],
      "stateMutability": "view",
      "type": "function"
    },
    {
      "inputs": [
        {
          "internalType": "uint64",
          "name": "",
          "type": "uint64"
        },
        {
          "internalType": "address",
          "name": "",
          "type": "address"
        }
      ],
      "name": "hasAnswered",
      "outputs": [
        {
          "internalType": "bool",
          "name": "",
          "type": "bool"
        }
      ],
      "stateMutability": "view",
      "type": "function"
    },
    {
      "inputs": [
        {
          "components": [
            {
              "internalType": "string",
              "name": "text",
              "type": "string"
            },
            {
              "internalType": "string[]",
              "name": "options",
              "type": "string[]"
            },
            {
              "internalType": "uint32",
              "name": "min",
              "type": "uint32"
            },
            {
              "internalType": "uint32",
              "name": "max",
              "type": "uint32"
            },
            {
              "internalType": "enum QuestionSpecLib.QuestionType",
              "name": "t",
              "type": "uint8"
            }
          ],
          "internalType": "struct QuestionSpecLib.QuestionSpec",
          "name": "_main",
          "type": "tuple"
        },
        {
          "components": [
            {
              "internalType": "string",
              "name": "text",
              "type": "string"
            },
            {
              "internalType": "string[]",
              "name": "options",
              "type": "string[]"
            },
            {
              "internalType": "uint32",
              "name": "min",
              "type": "uint32"
            },
            {
              "internalType": "uint32",
              "name": "max",
              "type": "uint32"
            },
            {
              "internalType": "enum QuestionSpecLib.QuestionType",
              "name": "t",
              "type": "uint8"
            }
          ],
          "internalType": "struct QuestionSpecLib.QuestionSpec[]",
          "name": "_metas",
          "type": "tuple[]"
        },
        {
          "internalType": "uint256",
          "name": "_startTime",
          "type": "uint256"
        },
        {
          "internalType": "uint256",
          "name": "_endTime",
          "type": "uint256"
        },
        {
          "internalType": "uint32",
          "name": "_queryThreshold",
          "type": "uint32"
        }
      ],
      "name": "newQuestion",
      "outputs": [],
      "stateMutability": "nonpayable",
      "type": "function"
    },
    {
      "inputs": [],
      "name": "nextQueryRequestId",
      "outputs": [
        {
          "internalType": "uint64",
          "name": "",
          "type": "uint64"
        }
      ],
      "stateMutability": "view",
      "type": "function"
    },
    {
      "inputs": [],
      "name": "nextQuestionId",
      "outputs": [
        {
          "internalType": "uint64",
          "name": "",
          "type": "uint64"
        }
      ],
      "stateMutability": "view",
      "type": "function"
    },
    {
      "inputs": [
        {
          "internalType": "uint64",
          "name": "",
          "type": "uint64"
        }
      ],
      "name": "queryRequests",
      "outputs": [
        {
          "internalType": "uint64",
          "name": "questionId",
          "type": "uint64"
        },
        {
          "internalType": "address",
          "name": "owner",
          "type": "address"
        },
        {
          "internalType": "euint32",
          "name": "ansCount",
          "type": "uint256"
        },
        {
          "internalType": "uint32",
          "name": "accSteps",
          "type": "uint32"
        },
        {
          "internalType": "enum IAnalytic.RequestState",
          "name": "state",
          "type": "uint8"
        }
      ],
      "stateMutability": "view",
      "type": "function"
    },
    {
      "inputs": [
        {
          "internalType": "uint64",
          "name": "",
          "type": "uint64"
        },
        {
          "internalType": "address",
          "name": "",
          "type": "address"
        }
      ],
      "name": "questionAdmins",
      "outputs": [
        {
          "internalType": "bool",
          "name": "",
          "type": "bool"
        }
      ],
      "stateMutability": "view",
      "type": "function"
    },
    {
      "inputs": [
        {
          "internalType": "uint64",
          "name": "",
          "type": "uint64"
        },
        {
          "internalType": "uint256",
          "name": "",
          "type": "uint256"
        }
      ],
      "name": "questionAnswers",
      "outputs": [
        {
          "internalType": "euint32",
          "name": "val",
          "type": "uint256"
        }
      ],
      "stateMutability": "view",
      "type": "function"
    },
    {
      "inputs": [
        {
          "internalType": "uint64",
          "name": "",
          "type": "uint64"
        }
      ],
      "name": "questions",
      "outputs": [
        {
          "components": [
            {
              "internalType": "string",
              "name": "text",
              "type": "string"
            },
            {
              "internalType": "string[]",
              "name": "options",
              "type": "string[]"
            },
            {
              "internalType": "uint32",
              "name": "min",
              "type": "uint32"
            },
            {
              "internalType": "uint32",
              "name": "max",
              "type": "uint32"
            },
            {
              "internalType": "enum QuestionSpecLib.QuestionType",
              "name": "t",
              "type": "uint8"
            }
          ],
          "internalType": "struct QuestionSpecLib.QuestionSpec",
          "name": "main",
          "type": "tuple"
        },
        {
          "internalType": "uint256",
          "name": "startTime",
          "type": "uint256"
        },
        {
          "internalType": "uint256",
          "name": "endTime",
          "type": "uint256"
        },
        {
          "internalType": "enum IAnalytic.QuestionState",
          "name": "state",
          "type": "uint8"
        },
        {
          "internalType": "uint32",
          "name": "queryThreshold",
          "type": "uint32"
        }
      ],
      "stateMutability": "view",
      "type": "function"
    },
    {
      "inputs": [
        {
          "internalType": "uint64",
          "name": "qId",
          "type": "uint64"
        },
        {
          "components": [
            {
              "internalType": "uint8",
              "name": "metaOpt",
              "type": "uint8"
            },
            {
              "internalType": "enum IAnalytic.PredicateOp",
              "name": "op",
              "type": "uint8"
            },
            {
              "internalType": "uint32",
              "name": "metaVal",
              "type": "uint32"
            }
          ],
          "internalType": "struct IAnalytic.Predicate[]",
          "name": "predicates",
          "type": "tuple[]"
        }
      ],
      "name": "requestQuery",
      "outputs": [
        {
          "internalType": "uint64",
          "name": "reqId",
          "type": "uint64"
        }
      ],
      "stateMutability": "nonpayable",
      "type": "function"
    },
    {
      "inputs": [
        {
          "internalType": "address",
          "name": "",
          "type": "address"
        },
        {
          "internalType": "uint256",
          "name": "",
          "type": "uint256"
        }
      ],
      "name": "userQueries",
      "outputs": [
        {
          "internalType": "uint64",
          "name": "",
          "type": "uint64"
        }
      ],
      "stateMutability": "view",
      "type": "function"
    }
  ],
  "transactionHash": "0x552fc440587a993256b03593558577fc51a8496533bcee623158904f359dbd91",
  "args": [],
  "numDeployments": 1,
  "solcInputHash": "96fa4d657a1a4c5992f6787f5a94d22c",
  "bytecode": "0x608060405234620001af575f606062000017620001b3565b828152826020820152826040820152015262000032620001b3565b606073fee8407e2f5e3ee68ad77cae98c434e637f516e59182815273687408ab54661ba0b4aef3a44156c616c6955e0780602083015273fb03be574d14c256d56f09a198b586bdfc0a9de291826040820152739d6891a6240d6130c54ae243d8005063d05fe14b938491015260018060a01b0319937fed8d60e34876f751cc8b014c560745351147d9de11b9347c854e881b128ea60090858254161790557fed8d60e34876f751cc8b014c560745351147d9de11b9347c854e881b128ea60190848254161790557fed8d60e34876f751cc8b014c560745351147d9de11b9347c854e881b128ea60290838254161790557fed8d60e34876f751cc8b014c560745351147d9de11b9347c854e881b128ea60390828254161790557333347831500f1e73f0cccbb95c9f86b94d7b11237f93ab6e17f2c461cce6ea5d4ec117e51dda77a64affc2b2c05f8cd440def0e7009182541617905560018060401b031980600a5416600a55600f5416600f556040516143889081620001e88239f35b5f80fd5b60405190608082016001600160401b03811183821017620001d357604052565b634e487b7160e01b5f52604160045260245ffdfe6080806040526004361015610012575f80fd5b5f905f3560e01c9081630d79e8ec1461280457508063336f3dbc146127745780633c5e7587146126af5780633d14f4c9146126365780635c556160146125dc5780635d4f28bc146125b557806362c2a450146122c05780636fa78d39146122605780638a0d72021461213157806398829d3314611f24578063a667533f14611ca9578063b9e073d114611b62578063c82c77b11461104c578063c9f68c4714610ffa578063d67758ba14610fce578063e50752eb14610f4d578063e62d604a14610f31578063eb264b9c14610f0a578063f4f8a4a214610eb0578063f601440614610836578063f665c3a21461012e5763f9e46a1414610110575f80fd5b3461012b578060031936011261012b57602060405160038152f35b80fd5b503461012b57608036600319011261012b57610148613275565b6001600160401b0391906044358381116108325761016a903690600401613234565b90936064359281841161082e573660238501121561082e578184600401351161082e5736602485600401358601011161082e5781600a54168282161015610815578181168552600b60205260408520600260ff6006830154166101cc816135e6565b146107fb57600581015442116107fb576004015442106107e3578181168552600e60205260408520335f5260205260ff60405f2054166107ba578181168552600b602052604085209260038401548082036107965750600684015461023360ff82166135e6565b600160ff821603610784575b5061025d61025536876004013560248901613689565b602435613fdb565b93610268308661423a565b6102e26020886002840161029263ffffffff610287818454168c6140e6565b9254851c168a61415e565b826001600160a01b035f8051602061435c83398151915254169260405196879586948593630ccd46b160e31b8552600485019192604091949360608401958452602084015260ff60f81b16910152565b03925af1908115610779578891610747575b509795919061030282613ae5565b9688935b83851061059d5750505050506040519561031f876132f1565b600187526020368189013761033387613967565b526064420195864211610589576001600160a01b037fed8d60e34876f751cc8b014c560745351147d9de11b9347c854e881b128ea6005416803b156105855786604051809263155f840160e21b82526020600483015281838161039960248201896141d6565b03925af1801561057a57908791610562575b50506104046020916001600160a01b037f93ab6e17f2c461cce6ea5d4ec117e51dda77a64affc2b2c05f8cd440def0e70054169088604051809b81958294634c0d927760e01b845260a0600485015260a48401906141d6565b9063062c2a4560e41b6024840152836044840152606483015282608483015203925af195861561055757859661051f575b50858552600860205260408520918254600160401b938482101561050b57816104679160016104809594018155613c14565b919093169083549060031b91821b915f19901b19161790565b90558484526007602052604084208054918210156104f757816104ac9160016104cb9594018155613c14565b81549060031b906001600160a01b0333831b921b191617905584614209565b815b81518110156104f357806104ed6104e660019385613974565b5186614209565b016104cd565b8280f35b634e487b7160e01b85526041600452602485fd5b634e487b7160e01b88526041600452602488fd5b9095506020813d60201161054f575b8161053b6020938361335d565b8101031261054b5751945f610435565b5f80fd5b3d915061052e565b6040513d87823e3d90fd5b61056b906132c3565b61057657855f6103ab565b8580fd5b6040513d89823e3d90fd5b8680fd5b634e487b7160e01b86526011600452602486fd5b909192939961063f60208b8b6102928f63ffffffff600261063383600361061b8f968f8f8888610623858f61061b8f968b926105f761062d9a6105eb87943690602481600401359101613689565b908460051b0135613fdb565b6106018383613974565b52610616306106108484613974565b5161423a565b613974565b519501613cbf565b50015416906140e6565b99613974565b500154861c169061415e565b03925af190811561073c57908b92918391610704575b505f8051602061435c83398151915254604051630ccd46b160e31b8152600481019390935260248301919091526001600160f81b031983166044830152909160209183916064918391906001600160a01b03165af180156106f9578a906106c6575b600191509a0193929190610306565b506020813d6020116106f1575b816106e06020938361335d565b8101031261054b57600190516106b7565b3d91506106d3565b6040513d8c823e3d90fd5b9250506020823d602011610734575b816107206020938361335d565b8101031261054b5790518a91906020610655565b3d9150610713565b6040513d8d823e3d90fd5b90506020813d602011610771575b816107626020938361335d565b8101031261054b57515f6102f4565b3d9150610755565b6040513d8a823e3d90fd5b60ff191660011760068501555f61023f565b90606493604051936375bf0e8360e01b855216600484015260248301526044820152fd5b604051632728f33d60e11b81526001600160401b03919091166004820152336024820152604490fd5b60405162c0df1b60e21b815291166004820152602490fd5b50604051635c6d3af360e01b815291166004820152602490fd5b60405163277e73b360e11b815291166004820152602490fd5b8480fd5b8280fd5b503461012b57604036600319011261012b57610850613275565b906001600160401b036024351161012b5736602360243501121561012b576001600160401b03602435600401351161012b57366024606081356004013502813501011161012b576001600160401b03600a54166001600160401b0383161015610e8f576001600160401b0382168152600d60205260408120335f5260205260ff60405f20541615610e6e576001600160401b0382168152600b6020526040812063ffffffff600661090085613c29565b92015460081c1611610e4d576001600160401b03600f5416906001600160401b0383168152600b602052604081206109366142b4565b90600281015460ff8160401c1661094c81613437565b610db55750600263ffffffff91015460201c169261097763ffffffff61097186613ba5565b16613ae5565b90835b856001600160401b038216116109d4578361099e6001600160401b03831685613974565b526001600160401b03808216146109c0576001600160401b031660010161097a565b634e487b7160e01b85526011600452602485fd5b5093505b6001600160401b03604051956109ed87613327565b168552336020860152610a0560243560040135613420565b610a12604051918261335d565b602480356004810135835201602082015b6024606081356004013502813501018210610d585750506040860152606085015260808401528060a08401528060c08401528181526010602052604081206001600160401b038451168154907bffffffffffffffffffffffffffffffffffffffff0000000000000000602087015160401b169163ffffffff60e01b16171781556040840151805190600160401b8211610d44576001830154826001850155808310610d1a575b5060200190600183018452602084209184905b828210610cb0575050505060608401518051906001600160401b038211610c9c57602090610b0d8360028601613b17565b0160028301845260208420845b838110610c885750505050600490608085015160038201550163ffffffff60a08501511681549064ff0000000060c0870151610b5581613437565b610b5e81613437565b60201b169164ffffffffff191617179055600f546001600160401b03610b8581831661393b565b16906001600160401b03191617600f55338152601160205260408120805490600160401b821015610c745790610bc09160018201815561361c565b81549060031b906001600160401b0385831b921b19161790555b60608301518051821015610c125790610bfa600192610610833092613974565b610c0c33610610836060880151613974565b01610bda565b602083610c3286610c2730608083015161423a565b60803391015161423a565b604080516001600160401b03831681523360208201527fc151e2ad5f7ea91d34238328a2fcfd1328147d1625b5b491a917ce06a7ca4cdc9190a1604051908152f35b634e487b7160e01b83526041600452602483fd5b600190602084519401938184015501610b1a565b634e487b7160e01b84526041600452602484fd5b805160ff815116908554916020820151916004831015610d06579260209261ff006001969365ffffffff000060408998015160101b169365ffffffffffff1916179160081b161717875501940191019092610adc565b634e487b7160e01b8a52602160045260248afd5b600184015f5260205f20908382015b8183018110610d39575050610ac9565b5f8155600101610d29565b634e487b7160e01b5f52604160045260245ffd5b60608236031261057657604051610d6e81613342565b60ff8335168335036105855782358152600460208401351015610585576060916020918285013583820152610da560408601613264565b6040820152815201910190610a23565b90604051908160808101106001600160401b03608084011117610d445760808201604052600382526060366020840137610df863ffffffff839460201c16614305565b610e0183613967565b52815160011015610e395763ffffffff6002610e2592866040860152015416614305565b90805160021015610e3957606001526109d8565b634e487b7160e01b5f52603260045260245ffd5b6040516332b2c03d60e11b81526001600160401b0383166004820152602490fd5b6040516388f9834f60e01b81526001600160401b0383166004820152602490fd5b60405163277e73b360e11b81526001600160401b0383166004820152602490fd5b503461012b57604036600319011261012b576001600160a01b036040610ed4613275565b926001600160401b03610ee5613606565b94168152600d6020522091165f52602052602060ff60405f2054166040519015158152f35b503461012b578060031936011261012b5760206001600160401b03600a5416604051908152f35b503461012b578060031936011261012b57602060405160048152f35b503461012b57602036600319011261012b5760a09060406001600160401b039182610f76613275565b16815260106020522063ffffffff81549160046003820154910154906001600160a01b0360ff8360201c1694604051968116875260401c1660208601526040850152166060830152610fc781613437565b6080820152f35b503461012b57602036600319011261012b576020610ff2610fed613275565b613c29565b604051908152f35b503461012b57604036600319011261012b57611014613275565b6001600160401b03168152600c602052604081208054602435929083101561012b5760206110428484613670565b5054604051908152f35b503461012b57604036600319011261012b57611066613275565b906024359163ffffffff8316830361054b576001600160401b03600f54166001600160401b0382161015611b40576001600160401b038116825260106020526001600160a01b03604083205460401c163303611b1e576001600160401b0381168252601060205260408220600481015490600160ff8360201c166110e981613437565b14611afd576001600160401b038154168452600b6020526040842094600c6020526040852090809363ffffffff8354169163ffffffff808316840311611ae95763ffffffff1663ffffffff80831684031610611ad8575b50505f929360206001600160a01b035f8051602061435c8339815191525416604460405180978193631ce2e8d760e31b8352600160048401528160248401525af1938415611505575f94611aa4575b50929363ffffffff600484015416915b63ffffffff6111b48382600488015416613bba565b1663ffffffff84161015611941576111cc8382613670565b50948792875b60018701548510156112bf5760208a611252926111fc6111f58960018d01613c14565b508c613cd8565b5f8051602061435c83398151915254604051630ccd46b160e31b8152600481019290925260248201929092526001600160f81b0319831660448201529384926001600160a01b0390921691839182906064820190565b03925af19081156106f9578a9161128d575b509360018101811161127957600101936111d2565b634e487b7160e01b8a52601160045260248afd5b90506020813d6020116112b7575b816112a86020938361335d565b8101031261054b57515f611264565b3d915061129b565b969597909193509891986112e060038901546112da89613f00565b90613f56565b600389015560ff600284015460401c166112f981613437565b61154f576001600160401b038854168952600b6020526040892099895b63ffffffff60028d015460201c1663ffffffff82161161153257875461134163ffffffff8316614305565b8115611522575b8015611510575b60209060646001600160a01b035f8051602061435c8339815191525416935f6040519586948593630d7c62eb60e31b8552600485015260248401528160448401525af1908115611505578c918b915f916114cc575b505f8051602061435c83398151915254604051630ccd46b160e31b8152600481019390935260248301919091526001600160f81b031983166044830152909160209183916064918391906001600160a01b03165af19081156114c1578b9183918e91611487575b5061145691600261143961142161144094613f00565b61142d84848901613c14565b90549060031b1c613f56565b9401613c14565b819391549060031b91821b915f19901b19161790565b905563ffffffff808216146114735763ffffffff16600101611316565b634e487b7160e01b8b52601160045260248bfd5b925050506020813d6020116114b9575b816114a46020938361335d565b8101031261054b57518a90829061145661140b565b3d9150611497565b6040513d8e823e3d90fd5b925050506020813d6020116114fd575b816114e96020938361335d565b8101031261054b57518b908a9060206113a4565b3d91506114dc565b6040513d5f823e3d90fd5b50602061151b6142b4565b905061134f565b905061152c6142b4565b90611348565b5094919795509550611545919850613ba5565b919490939461119f565b959198939096946115cf60208a61156860028a01613bd2565b90549060031b1c84548115611931575b8015611923575b826001600160a01b035f8051602061435c83398151915254169260405196879586948593632a1f7ab160e21b8552600485019192604091949360608401958452602084015260ff60f81b16910152565b03925af19081156106f9578a916118f1575b5060206115f060028901613bd2565b90549060031b1c60646001600160a01b035f8051602061435c8339815191525416938d604051958694859363cb3b940760e01b85528b6004860152602485015260448401525af19081156106f9578a916118bf575b5061165561144060028901613bd2565b905561167461166660028801613be4565b905483549160031b1c613f56565b602061168260028901613be4565b90549060031b1c60646001600160a01b035f8051602061435c8339815191525416938d604051958694859363cb3b940760e01b85528b6004860152602485015260448401525af19081156106f957908a92918391611887575b5091602091611768936116f361144060028c01613be4565b905561170160028a01613bfc565b90549060031b1c90548115611877575b8015611869575b826001600160a01b035f8051602061435c8339815191525416926040519687958694859363a86e9de560e01b8552600485019192604091949360608401958452602084015260ff60f81b16910152565b03925af1801561185e57899061182b575b60209150606461178b60028901613bfc565b90549060031b1c948b6001600160a01b035f8051602061435c8339815191525416604051978895869463cb3b940760e01b86526004860152602485015260448401525af180156107795788906117f7575b61154592506117f061144060028801613bfc565b9055613ba5565b506020823d602011611823575b816118116020938361335d565b8101031261054b5761154591516117dc565b3d9150611804565b506020813d602011611856575b816118456020938361335d565b8101031261054b5760209051611779565b3d9150611838565b6040513d8b823e3d90fd5b506118726142b4565b611718565b90506118816142b4565b90611711565b9250506020823d6020116118b7575b816118a36020938361335d565b8101031261054b57905189919060206116db565b3d9150611896565b90506020813d6020116118e9575b816118da6020938361335d565b8101031261054b57515f611645565b3d91506118cd565b90506020813d60201161191b575b8161190c6020938361335d565b8101031261054b57515f6115e1565b3d91506118ff565b5061192c6142b4565b61157f565b905061193b6142b4565b90611578565b8385889363ffffffff61195b600485015492828416613bba565b169063ffffffff19161760048301556119796003830154309061423a565b61199560038301546001600160a01b03845460401c169061423a565b835b60028301548110156119f357806119c36119b660019360028701613c14565b3091549060031b1c61423a565b6119ed6119d38260028701613c14565b9054865460401c6001600160a01b03169160031b1c61423a565b01611997565b506004820154925490929063ffffffff8216818103611a5b5750509160209160046401000000007f4ceed57a97e26038270b156f5920479e6f3e9c4f1baa29470699b228d11657ac9564ff000000001916179101556001600160401b0360405191168152a180f35b606093507ffd463f5f8ea810259e60a8d43e0d3ea145fcac45521e164bd65dc6b9a4d8d563949250906001600160401b039182604051941684526020840152166040820152a180f35b9093506020813d602011611ad0575b81611ac06020938361335d565b8101031261054b5751925f61118f565b3d9150611ab3565b63ffffffff16900392505f80611140565b634e487b7160e01b88526011600452602488fd5b60405163cd74a76b60e01b81526001600160401b0384166004820152602490fd5b604051634959d18760e01b81526001600160401b039091166004820152602490fd5b60405163e5267a5f60e01b81526001600160401b039091166004820152602490fd5b503461012b57602080600319360112611ca557611b7d613275565b918060408051611b8c81613342565b60608152828582015201526001600160401b0380600f5416931692831015611c8c57828152601082526001600160a01b03604082205460401c163303611c7357808360409252601083522090600482015490600160ff83831c16611bef81613437565b03611c5a5760609350600383015491611c4863ffffffff92611c1f600260405197611c1989613342565b01613b57565b86528086019485528360408701931683526040519687968288525191870152608086019061363d565b92516040850152511660608301520390f35b604051631161704360e11b815260048101859052602490fd5b604051634959d18760e01b815260048101849052602490fd5b60405163e5267a5f60e01b815260048101849052602490fd5b5080fd5b503461012b57602036600319011261012b576001600160401b03611ccb613275565b8260c0604051611cda81613327565b828152826020820152606060408201526060808201528260808201528260a082015201521681526010602052604081209060405191611d1883613327565b6001600160a01b0381546001600160401b038116855260401c16602084015260018101805490611d4782613420565b91611d55604051938461335d565b808352602083019185526020852085925b828410611ebe57878760ff600489896040860152611d8660028201613b57565b606086015260038101546080860152015463ffffffff811660a0850152611db1828260201c16613437565b60201c1660c08301526040519182916020835261010083016001600160401b0383511660208501526001600160a01b03602084015116604085015260408301519160e06060860152825180925260206101208601930191815b818310611e5f5750505050611e3160c0916060840151601f1986830301608087015261363d565b91608081015160a085015263ffffffff60a082015116828501520151611e5681613437565b60e08301520390f35b91939092809596505160ff815116825260208101516004811015611eaa578263ffffffff60406020946060948660019801520151166040820152019501930190918695949392611e0a565b634e487b7160e01b84526021600452602484fd5b604097969751611ecd81613342565b825460ff80821683528160081c166004811015611f1057928263ffffffff602093600196858897015260101c166040820152815201920193019290969596611d66565b634e487b7160e01b8b52602160045260248bfd5b503461012b57602080600319360112611ca557611f3f613275565b9060405191611f4d836132d6565b8360a060405194611f5d8661330c565b6060958681528686820152836040820152838782015283608082015281528585820152826040820152828682015282608082015201526001600160401b0380600a5416911690811015612119578352600b8152604083209260405192611fc2846132d6565b611fcb85613455565b84526003946003810195865490611fe182613420565b97611fef604051998a61335d565b8289528552858520859087808b015b8584106120fb57508901998a525050505060048101546040860190815260058201548387019081526006909201549260808701929160ff8516612040816135e6565b845263ffffffff958660a08a019660081c16865261206f60405199898b525160c08a8c015260e08b019061353c565b995197601f1990818b8d030160408c0152895191828d528c8280808301928660051b01019c0194915b8483106120cd575050505050508798505190870152516080860152516120bd816135e6565b60a0850152511660c08301520390f35b90919293949b848f6120eb8f9360019486859483030188525161353c565b9e01930193019194939290612098565b600191859161210985613455565b8152019201920191908890611ffe565b6024906040519063277e73b360e11b82526004820152fd5b503461012b576020908160031936011261012b5761214d613275565b916001600160401b0380600f5416931692831015611c8c57828252601081526001600160a01b0380604084205460401c16330361224757838352601082523390604084205460401c1603611c735782825260108152604082209282845560018085018054905f815581612224575b5050600285018054905f815581612208575b505050826004855f60037f6447dad21daa2a79315bced174e6f1b1dd3555cfcfdc7bd7fa34191f64795e80979801550155604051908152a180f35b5f52835f20908101905b818110156121cd575f81558201612212565b5f5281845f20918201915b82811061223c57506121bb565b5f815501829061222f565b604051634959d18760e01b815260048101859052602490fd5b503461012b57604036600319011261012b5761227a6135f0565b6001600160a01b031681526011602052604081208054602435929083101561012b5760206001600160401b036122b0858561361c565b9190546040519260031b1c168152f35b503461012b57604036600319011261012b576004359060248035801590811503610832576001600160a01b0391827f93ab6e17f2c461cce6ea5d4ec117e51dda77a64affc2b2c05f8cd440def0e700541633036125b15784845260209160088352604085209560405180858954918281520198885285882090885b81811061259d57505050612355816123659899038261335d565b6001600160401b03968791613967565b511694818852600785526040882060405190818782549182815201918b52878b20908b5b898282106125875750505050906123a5816123aa93038261335d565b613967565b511691612554578652600483526123c360408720613b57565b908151945f1995868101908111612541576123dd90613ae5565b9460015b8451811015612427576123f48186613974565b51888201828111612414579061240d600193928a613974565b52016123e1565b634e487b7160e01b8c526011600452878cfd5b508786866124358c97613967565b5160405190612443826132f1565b8152848101928352858852600c855260408820805490600160401b82101561252e579061247591600182018155613670565b91909161251b57906001915181550191519081519384116125095750839061249d8484613b17565b01908652828620865b8381106124f75750505050818452600e81526040842090835f525260405f20600160ff198254161790557fb0674b169738a11731fb64a0088f28388c55ee0e0e0fdab53943bc2335c7f3848380a380f35b825182820155918401916001016124a6565b634e487b7160e01b8852604160045287fd5b634e487b7160e01b895260048990528289fd5b634e487b7160e01b8a526041600452838afd5b634e487b7160e01b895260116004528489fd5b50604051630f1bb9e760e41b81526001600160401b03851660048201526001600160a01b03919091166024820152604490fd5b8354871685529093019260019283019201612389565b82548b52998701996001928301920161233b565b8380fd5b503461012b578060031936011261012b5760206001600160401b03600f5416604051908152f35b503461012b57604036600319011261012b576001600160a01b036040612600613275565b926001600160401b03612611613606565b94168152600e6020522091165f52602052602060ff60405f2054166040519015158152f35b503461012b57604036600319011261012b576126506135f0565b6001600160401b039190602435838116810361054b5761266f91613988565b604051916020808401906020855283518092526020604086019401925b8281106126995785850386f35b835187168552938101939281019260010161268c565b503461012b57602036600319011261012b576126c9613275565b6001600160401b0380600a541691169081101561211957808252600d60205260408220335f5260205260ff60405f2054161561275c57808252600b602052600660408320018054600260ff821661271f816135e6565b03612728578380f35b60ff191660021790557f14883c8b2ec2887f4d5131ced01a22713b9040addbfd70ef20b904821671f1d48280a25f80808380f35b602490604051906388f9834f60e01b82526004820152fd5b503461012b57602036600319011261012b5760406127de916001600160401b0361279c613275565b168152600b602052206127ae81613455565b9063ffffffff600482015491600660058201549101549060ff82169060405196879660a0885260a088019061353c565b94602087015260408601526127f2816135e6565b606085015260081c1660808301520390f35b90503461054b5760031960a03682011261054b57600435906001600160401b03821161054b5760a09082600401923603011261054b576024356001600160401b03811161054b57612859903690600401613234565b6084939193359163ffffffff8316830361054b57600482116131f1575060643560443510156131855761288c36846136ec565b730Ea37D3264b940C94D68DA1EB34C291D62Ba8Ab590813b1561054b576040515f81806128c763b4d54fdb60e01b95868352600483016137e6565b0381865af4801561150557613172575b5086805b8481106130f557505050506001600160401b03600a54169361290a60405194612903866132d6565b36906136ec565b845261291582613420565b91612923604051938461335d565b80835260051b8101602083013682116130f15782905b8282106130c157505050509063ffffffff916020840152604435604084015260643560608401528460808401521660a0820152818352600d60205260408320335f5260205260405f20600160ff19825416179055818352600b60205260408320815180518051906001600160401b0382116130ad576129b8845461328b565b601f811161307d575b50602090601f8311600114613015576129f19291889183612cdd575b50508160011b915f199060031b1c19161790565b82555b600182016020820151906020825192612a0d84846138f4565b019087526020872087915b838310612f0c5750505050600282019063ffffffff6040820151169082549168ff0000000000000000608067ffffffff00000000606085015160201b16930151612a6181613437565b612a6a81613437565b60401b169268ffffffffffffffffff191617171790556020820151805190600160401b8211612ef8576003830154826003850155808310612e4f575b50602001906003830186526020862086925b828410612b75575050505060069060408301516004820155606083015160058201550190608081015190612aeb826135e6565b612af4826135e6565b60ff64ffffffff0060a0855493015160081b1692169064ffffffffff191617179055600a546001600160401b03612b2c81831661393b565b16906001600160401b03191617600a55604051604435815260643560208201527f49db07058829aa7f58f443df35f9612682dc944257eb8d87915f0017424243f360403392a380f35b805180518051906001600160401b038211612e3b57612b94855461328b565b601f8111612e0b575b50602090601f8311600114612da357612bcc92918c9183612cdd5750508160011b915f199060031b1c19161790565b83555b600183016020820151906020825192612be884846138f4565b01908b5260208b20908b905b838210612c6f57505050506020600192600392600286019063ffffffff6040820151169082549168ff0000000000000000608067ffffffff000000006060850151891b16930151612c4481613437565b612c4d81613437565b60401b169268ffffffffffffffffff1916171717905501920193019290612ab8565b80518051906001600160401b038211612d8f578e90612c8e865461328b565b601f8111612d54575b50602091601f8411600114612ce8578360019592946020948796612cce9492612cdd5750508160011b915f199060031b1c19161790565b86555b01930191019091612bf4565b015190505f806129dd565b919086835260208320925b601f1985168110612d3c575083602093600196938796938794601f19811610612d24575b505050811b018655612cd1565b01515f1960f88460031b161c191690555f8080612d17565b91926020600181928685015181550194019201612cf3565b612d7f9087845260208420601f860160051c81019160208710612d85575b601f0160051c0190613896565b5f612c97565b9091508190612d72565b634e487b7160e01b8f52604160045260248ffd5b9190858c5260208c20908c935b601f1984168510612df0576001945083601f19811610612dd8575b505050811b018355612bcf565b01515f1960f88460031b161c191690555f8080612dcb565b81810151835560209485019460019093019290910190612db0565b612e3590868d5260208d20601f850160051c81019160208610612d8557601f0160051c0190613896565b5f612b9d565b634e487b7160e01b8b52604160045260248bfd5b6003818102048103612ee4576003838102048303612ee457600384018752602087208360030281015b8260030282018110612e8b575050612aa6565b612e94816138ac565b60018101545f600183015580612eb5575b5080896002600393015501612e78565b600182015f5260205f2090815b8183018110612ed2575050612ea5565b80612ede6001926138ac565b01612ec2565b634e487b7160e01b87526011600452602487fd5b634e487b7160e01b86526041600452602486fd5b80518051906001600160401b038211612e3b57612f29845461328b565b601f8111612fe5575b506020908b601f8411600114612f79578360019592946020948796612f6a9492612cdd5750508160011b915f199060031b1c19161790565b85555b01920192019190612a18565b85905260208c2091908c5b601f1985168110612fcd575083602093600196938796938794601f19811610612fb5575b505050811b018555612f6d565b01515f1960f88460031b161c191690555f8080612fa8565b91926020600181928685015181550194019201612f84565b61300f90858d5260208d20601f850160051c81019160208610612d8557601f0160051c0190613896565b5f612f32565b9190848852602088209088935b601f1984168510613062576001945083601f1981161061304a575b505050811b0182556129f4565b01515f1960f88460031b161c191690555f808061303d565b81810151835560209485019460019093019290910190613022565b6130a79085895260208920601f850160051c81019160208610612d8557601f0160051c0190613896565b5f6129c1565b634e487b7160e01b87526041600452602487fd5b81356001600160401b0381116130ed576020916130e28392369088016136ec565b815201910190612939565b8980fd5b8780fd5b8060051b880135609e1989360301811215610832576131179036908a016136ec565b843b1561083257826131369160405180938192888352600483016137e6565b0381885af4908115613167578391613153575b50506001016128db565b61315c906132c3565b611ca557815f613149565b6040513d85823e3d90fd5b61317d9197506132c3565b5f955f6128d7565b604051632c3efebd60e01b815260206004820152602760248201527f53746172742074696d652073686f756c64206265206c657373207468616e206560448201527f6e642074696d65000000000000000000000000000000000000000000000000006064820152608490fd5b632c3efebd60e01b815260206004820152601960248201527f6d6178206d657461206f7074696f6e73206578636565646564000000000000006044820152606490fd5b9181601f8401121561054b578235916001600160401b03831161054b576020808501948460051b01011161054b57565b359063ffffffff8216820361054b57565b600435906001600160401b038216820361054b57565b90600182811c921680156132b9575b60208310146132a557565b634e487b7160e01b5f52602260045260245ffd5b91607f169161329a565b6001600160401b038111610d4457604052565b60c081019081106001600160401b03821117610d4457604052565b604081019081106001600160401b03821117610d4457604052565b60a081019081106001600160401b03821117610d4457604052565b60e081019081106001600160401b03821117610d4457604052565b606081019081106001600160401b03821117610d4457604052565b90601f801991011681019081106001600160401b03821117610d4457604052565b9060405191825f82546133908161328b565b908184526020946001916001811690815f146133fe57506001146133c0575b5050506133be9250038361335d565b565b5f90815285812095935091905b8183106133e65750506133be93508201015f80806133af565b855488840185015294850194879450918301916133cd565b925050506133be94925060ff191682840152151560051b8201015f80806133af565b6001600160401b038111610d445760051b60200190565b6002111561344157565b634e487b7160e01b5f52602160045260245ffd5b906040516134628161330c565b809261346d8161337e565b8252600180820190815461348081613420565b9261348e604051948561335d565b8184525f90815260208082208186015b8484106134e357505050505050600260809260ff926020860152015463ffffffff80821660408601528160201c16606085015260401c16916134df83613437565b0152565b858381926134f08561337e565b81520192019301929061349e565b91908251928382525f5b848110613528575050825f602080949584010152601f8019910116010190565b602081830181015184830182015201613508565b90613550825160a0835260a08301906134fe565b916020928382015193838203818501528451908183528083019281808460051b8301019701935f915b8483106135b85750505050505060808160408293015163ffffffff809116604086015260608201511660608501520151916135b383613437565b015290565b90919293949784806135d6600193601f198682030187528c516134fe565b9a01930193019194939290613579565b6003111561344157565b600435906001600160a01b038216820361054b57565b602435906001600160a01b038216820361054b57565b9190918054831015610e39575f52601860205f208360021c019260031b1690565b9081518082526020808093019301915f5b82811061365c575050505090565b83518552938101939281019260010161364e565b8054821015610e39575f5260205f209060011b01905f90565b9291926001600160401b038211610d4457604051916136b2601f8201601f19166020018461335d565b82948184528183011161054b578281602093845f960137010152565b9080601f8301121561054b578160206136e993359101613689565b90565b91909160a08184031261054b57604051906137068261330c565b81938135906001600160401b039182811161054b57816137279185016136ce565b84526020908184013583811161054b57840181601f8201121561054b57803561374f81613420565b9461375d604051968761335d565b818652848087019260051b8401019380851161054b57858401925b8584106137c157505050505050906080929184015261379960408201613264565b60408401526137aa60608201613264565b6060840152013590600282101561054b5760800152565b833583811161054b5787916137db848480948a01016136ce565b815201930192613778565b602091828252613801815160a08585015260c08401906134fe565b928082015193601f19918285830301604086015285519182815281810182808560051b8401019801945f925b8584106138685750505050505050608081604060a093015163ffffffff8091166060860152606082015116828501520151916135b383613437565b909192939495988580613885838686600196030188528d516134fe565b9b019401940192959493919061382d565b8181106138a1575050565b5f8155600101613896565b6138b6815461328b565b90816138c0575050565b81601f5f93116001146138d1575055565b9080839182526138f0601f60208420940160051c840160018501613896565b5555565b90600160401b8111610d445781549181815582821061391257505050565b5f5260205f2091820191015b818110613929575050565b806139356001926138ac565b0161391e565b9060016001600160401b038093160191821161395357565b634e487b7160e01b5f52601160045260245ffd5b805115610e395760200190565b8051821015610e395760209160051b010190565b6001600160a01b03165f526011602091601160205260409260405f20935f945f938154945b858110613a8657506139be87613420565b966139cc604051988961335d565b808852601f196139db82613420565b013660208a013715613a7d575f935f5b8681106139fd57505050505050505090565b613a07818561361c565b6001600160401b03809254600392831b1c165f526010845281875f20541682861614613a38575b50506001016139eb565b613a45838799949961361c565b9054911b1c16613a55828b613974565b5260018101809111613a6a579460015f613a2e565b87634e487b7160e01b5f5260045260245ffd5b50505050505090565b613a90818461361c565b906001600160401b03918291549060031b1c165f526010865280855f20541690831614613ac0575b6001016139ad565b9660018101809111613ad25796613ab8565b86634e487b7160e01b5f5260045260245ffd5b90613aef82613420565b613afc604051918261335d565b8281528092613b0d601f1991613420565b0190602036910137565b90600160401b8111610d4457815491818155828210613b3557505050565b5f5260205f2091820191015b818110613b4c575050565b5f8155600101613b41565b90604051918281549182825260209260208301915f5260205f20935f905b828210613b8b575050506133be9250038361335d565b855484526001958601958895509381019390910190613b75565b90600163ffffffff8093160191821161395357565b91909163ffffffff8080941691160191821161395357565b805415610e39575f5260205f20905f90565b805460011015610e39575f52600160205f2001905f90565b805460021015610e39575f52600260205f2001905f90565b8054821015610e39575f5260205f2001905f90565b6001600160401b0380600a5416911690811015612119575f526020600c60205260409060405f20805491613c5c83613420565b93613c6a604051958661335d565b83855260208501925f5260205f20905f935b858510613c8d575050505050505190565b6002846001928451613c9e816132f1565b86548152613cad858801613b57565b83820152815201930194019391613c7c565b8054821015610e39575f52600360205f20910201905f90565b81549160ff92838160081c169060049182811015613e585715613e6b57508154848160081c1682811015613e5857600114613d945750815490848260081c169080821015613d815750600214613d555750546136e99263ffffffff92613d4391831690600101613c14565b9290549160101c169160031b1c61415e565b9050613d6f63ffffffff9260016136e99584169101613c14565b9290549160101c169160031b1c6140e6565b602190634e487b7160e01b5f525260245ffd5b93613daa91925092600160209486169101613c14565b90549060031b1c908115613e44575b6064905f6001600160a01b035f8051602061435c833981519152541663ffffffff6040519788968795631927108160e01b875286015260101c166024840152600160f81b60448401525af1908115611505575f91613e15575090565b90506020813d602011613e3c575b81613e306020938361335d565b8101031261054b575190565b3d9150613e23565b90506064613e506142b4565b919050613db9565b602183634e487b7160e01b5f525260245ffd5b93613e8191925092600160209486169101613c14565b90549060031b1c908115613eec575b6064905f6001600160a01b035f8051602061435c833981519152541663ffffffff6040519788968795630d7c62eb60e31b875286015260101c166024840152600160f81b60448401525af1908115611505575f91613e15575090565b90506064613ef86142b4565b919050613e90565b5f8051602061435c8339815191525460405163025f346960e51b81526004810192909252600160fa1b6024830152602090829060449082905f906001600160a01b03165af1908115611505575f91613e15575090565b908115613fcb575b8015613fb9575b60209060646001600160a01b035f8051602061435c8339815191525416935f604051958694859363f953e42760e01b8552600485015260248401528160448401525af1908115611505575f91613e15575090565b506020613fc46142b4565b9050613f65565b9050613fd56142b4565b90613f5e565b602061402c926001600160a01b0392835f8051602061435c8339815191525416905f6040518097819582946302e817ff60e41b845260048401523360248401526080604484015260848301906134fe565b600160fa1b606483015203925af1918215611505575f926140b2575b507fed8d60e34876f751cc8b014c560745351147d9de11b9347c854e881b128ea6005416803b1561054b576040516346ce4e4960e11b815260048101839052336024820152905f908290604490829084905af18015611505576140a9575090565b6136e9906132c3565b9091506020813d6020116140de575b816140ce6020938361335d565b8101031261054b5751905f614048565b3d91506140c1565b63ffffffff91602091801561414c575b6064905f6001600160a01b035f8051602061435c8339815191525416604051968795869463052896f160e01b86526004860152166024840152600160f81b60448401525af1908115611505575f91613e15575090565b5060646141576142b4565b90506140f6565b63ffffffff9160209180156141c4575b6064905f6001600160a01b035f8051602061435c833981519152541660405196879586946334a6d7b960e11b86526004860152166024840152600160f81b60448401525af1908115611505575f91613e15575090565b5060646141cf6142b4565b905061416e565b9081518082526020808093019301915f5b8281106141f5575050505090565b8351855293810193928101926001016141e7565b5f52600460205260405f20805490600160401b821015610d44578161144091600161423694018155613c14565b9055565b6001600160a01b037fed8d60e34876f751cc8b014c560745351147d9de11b9347c854e881b128ea600541691823b1561054b57604051631974142760e21b815260048101929092526001600160a01b03166024820152905f908290604490829084905af18015611505576142ab5750565b6133be906132c3565b5f60206001600160a01b035f8051602061435c8339815191525416604460405180948193631ce2e8d760e31b8352816004840152600160fa1b60248401525af1908115611505575f91613e15575090565b5f8051602061435c83398151915254604051631ce2e8d760e31b81526004810192909252600160fa1b6024830152602090829060449082905f906001600160a01b03165af1908115611505575f91613e1557509056feed8d60e34876f751cc8b014c560745351147d9de11b9347c854e881b128ea601a164736f6c6343000818000a",
  "deployedBytecode": "0x6080806040526004361015610012575f80fd5b5f905f3560e01c9081630d79e8ec1461280457508063336f3dbc146127745780633c5e7587146126af5780633d14f4c9146126365780635c556160146125dc5780635d4f28bc146125b557806362c2a450146122c05780636fa78d39146122605780638a0d72021461213157806398829d3314611f24578063a667533f14611ca9578063b9e073d114611b62578063c82c77b11461104c578063c9f68c4714610ffa578063d67758ba14610fce578063e50752eb14610f4d578063e62d604a14610f31578063eb264b9c14610f0a578063f4f8a4a214610eb0578063f601440614610836578063f665c3a21461012e5763f9e46a1414610110575f80fd5b3461012b578060031936011261012b57602060405160038152f35b80fd5b503461012b57608036600319011261012b57610148613275565b6001600160401b0391906044358381116108325761016a903690600401613234565b90936064359281841161082e573660238501121561082e578184600401351161082e5736602485600401358601011161082e5781600a54168282161015610815578181168552600b60205260408520600260ff6006830154166101cc816135e6565b146107fb57600581015442116107fb576004015442106107e3578181168552600e60205260408520335f5260205260ff60405f2054166107ba578181168552600b602052604085209260038401548082036107965750600684015461023360ff82166135e6565b600160ff821603610784575b5061025d61025536876004013560248901613689565b602435613fdb565b93610268308661423a565b6102e26020886002840161029263ffffffff610287818454168c6140e6565b9254851c168a61415e565b826001600160a01b035f8051602061435c83398151915254169260405196879586948593630ccd46b160e31b8552600485019192604091949360608401958452602084015260ff60f81b16910152565b03925af1908115610779578891610747575b509795919061030282613ae5565b9688935b83851061059d5750505050506040519561031f876132f1565b600187526020368189013761033387613967565b526064420195864211610589576001600160a01b037fed8d60e34876f751cc8b014c560745351147d9de11b9347c854e881b128ea6005416803b156105855786604051809263155f840160e21b82526020600483015281838161039960248201896141d6565b03925af1801561057a57908791610562575b50506104046020916001600160a01b037f93ab6e17f2c461cce6ea5d4ec117e51dda77a64affc2b2c05f8cd440def0e70054169088604051809b81958294634c0d927760e01b845260a0600485015260a48401906141d6565b9063062c2a4560e41b6024840152836044840152606483015282608483015203925af195861561055757859661051f575b50858552600860205260408520918254600160401b938482101561050b57816104679160016104809594018155613c14565b919093169083549060031b91821b915f19901b19161790565b90558484526007602052604084208054918210156104f757816104ac9160016104cb9594018155613c14565b81549060031b906001600160a01b0333831b921b191617905584614209565b815b81518110156104f357806104ed6104e660019385613974565b5186614209565b016104cd565b8280f35b634e487b7160e01b85526041600452602485fd5b634e487b7160e01b88526041600452602488fd5b9095506020813d60201161054f575b8161053b6020938361335d565b8101031261054b5751945f610435565b5f80fd5b3d915061052e565b6040513d87823e3d90fd5b61056b906132c3565b61057657855f6103ab565b8580fd5b6040513d89823e3d90fd5b8680fd5b634e487b7160e01b86526011600452602486fd5b909192939961063f60208b8b6102928f63ffffffff600261063383600361061b8f968f8f8888610623858f61061b8f968b926105f761062d9a6105eb87943690602481600401359101613689565b908460051b0135613fdb565b6106018383613974565b52610616306106108484613974565b5161423a565b613974565b519501613cbf565b50015416906140e6565b99613974565b500154861c169061415e565b03925af190811561073c57908b92918391610704575b505f8051602061435c83398151915254604051630ccd46b160e31b8152600481019390935260248301919091526001600160f81b031983166044830152909160209183916064918391906001600160a01b03165af180156106f9578a906106c6575b600191509a0193929190610306565b506020813d6020116106f1575b816106e06020938361335d565b8101031261054b57600190516106b7565b3d91506106d3565b6040513d8c823e3d90fd5b9250506020823d602011610734575b816107206020938361335d565b8101031261054b5790518a91906020610655565b3d9150610713565b6040513d8d823e3d90fd5b90506020813d602011610771575b816107626020938361335d565b8101031261054b57515f6102f4565b3d9150610755565b6040513d8a823e3d90fd5b60ff191660011760068501555f61023f565b90606493604051936375bf0e8360e01b855216600484015260248301526044820152fd5b604051632728f33d60e11b81526001600160401b03919091166004820152336024820152604490fd5b60405162c0df1b60e21b815291166004820152602490fd5b50604051635c6d3af360e01b815291166004820152602490fd5b60405163277e73b360e11b815291166004820152602490fd5b8480fd5b8280fd5b503461012b57604036600319011261012b57610850613275565b906001600160401b036024351161012b5736602360243501121561012b576001600160401b03602435600401351161012b57366024606081356004013502813501011161012b576001600160401b03600a54166001600160401b0383161015610e8f576001600160401b0382168152600d60205260408120335f5260205260ff60405f20541615610e6e576001600160401b0382168152600b6020526040812063ffffffff600661090085613c29565b92015460081c1611610e4d576001600160401b03600f5416906001600160401b0383168152600b602052604081206109366142b4565b90600281015460ff8160401c1661094c81613437565b610db55750600263ffffffff91015460201c169261097763ffffffff61097186613ba5565b16613ae5565b90835b856001600160401b038216116109d4578361099e6001600160401b03831685613974565b526001600160401b03808216146109c0576001600160401b031660010161097a565b634e487b7160e01b85526011600452602485fd5b5093505b6001600160401b03604051956109ed87613327565b168552336020860152610a0560243560040135613420565b610a12604051918261335d565b602480356004810135835201602082015b6024606081356004013502813501018210610d585750506040860152606085015260808401528060a08401528060c08401528181526010602052604081206001600160401b038451168154907bffffffffffffffffffffffffffffffffffffffff0000000000000000602087015160401b169163ffffffff60e01b16171781556040840151805190600160401b8211610d44576001830154826001850155808310610d1a575b5060200190600183018452602084209184905b828210610cb0575050505060608401518051906001600160401b038211610c9c57602090610b0d8360028601613b17565b0160028301845260208420845b838110610c885750505050600490608085015160038201550163ffffffff60a08501511681549064ff0000000060c0870151610b5581613437565b610b5e81613437565b60201b169164ffffffffff191617179055600f546001600160401b03610b8581831661393b565b16906001600160401b03191617600f55338152601160205260408120805490600160401b821015610c745790610bc09160018201815561361c565b81549060031b906001600160401b0385831b921b19161790555b60608301518051821015610c125790610bfa600192610610833092613974565b610c0c33610610836060880151613974565b01610bda565b602083610c3286610c2730608083015161423a565b60803391015161423a565b604080516001600160401b03831681523360208201527fc151e2ad5f7ea91d34238328a2fcfd1328147d1625b5b491a917ce06a7ca4cdc9190a1604051908152f35b634e487b7160e01b83526041600452602483fd5b600190602084519401938184015501610b1a565b634e487b7160e01b84526041600452602484fd5b805160ff815116908554916020820151916004831015610d06579260209261ff006001969365ffffffff000060408998015160101b169365ffffffffffff1916179160081b161717875501940191019092610adc565b634e487b7160e01b8a52602160045260248afd5b600184015f5260205f20908382015b8183018110610d39575050610ac9565b5f8155600101610d29565b634e487b7160e01b5f52604160045260245ffd5b60608236031261057657604051610d6e81613342565b60ff8335168335036105855782358152600460208401351015610585576060916020918285013583820152610da560408601613264565b6040820152815201910190610a23565b90604051908160808101106001600160401b03608084011117610d445760808201604052600382526060366020840137610df863ffffffff839460201c16614305565b610e0183613967565b52815160011015610e395763ffffffff6002610e2592866040860152015416614305565b90805160021015610e3957606001526109d8565b634e487b7160e01b5f52603260045260245ffd5b6040516332b2c03d60e11b81526001600160401b0383166004820152602490fd5b6040516388f9834f60e01b81526001600160401b0383166004820152602490fd5b60405163277e73b360e11b81526001600160401b0383166004820152602490fd5b503461012b57604036600319011261012b576001600160a01b036040610ed4613275565b926001600160401b03610ee5613606565b94168152600d6020522091165f52602052602060ff60405f2054166040519015158152f35b503461012b578060031936011261012b5760206001600160401b03600a5416604051908152f35b503461012b578060031936011261012b57602060405160048152f35b503461012b57602036600319011261012b5760a09060406001600160401b039182610f76613275565b16815260106020522063ffffffff81549160046003820154910154906001600160a01b0360ff8360201c1694604051968116875260401c1660208601526040850152166060830152610fc781613437565b6080820152f35b503461012b57602036600319011261012b576020610ff2610fed613275565b613c29565b604051908152f35b503461012b57604036600319011261012b57611014613275565b6001600160401b03168152600c602052604081208054602435929083101561012b5760206110428484613670565b5054604051908152f35b503461012b57604036600319011261012b57611066613275565b906024359163ffffffff8316830361054b576001600160401b03600f54166001600160401b0382161015611b40576001600160401b038116825260106020526001600160a01b03604083205460401c163303611b1e576001600160401b0381168252601060205260408220600481015490600160ff8360201c166110e981613437565b14611afd576001600160401b038154168452600b6020526040842094600c6020526040852090809363ffffffff8354169163ffffffff808316840311611ae95763ffffffff1663ffffffff80831684031610611ad8575b50505f929360206001600160a01b035f8051602061435c8339815191525416604460405180978193631ce2e8d760e31b8352600160048401528160248401525af1938415611505575f94611aa4575b50929363ffffffff600484015416915b63ffffffff6111b48382600488015416613bba565b1663ffffffff84161015611941576111cc8382613670565b50948792875b60018701548510156112bf5760208a611252926111fc6111f58960018d01613c14565b508c613cd8565b5f8051602061435c83398151915254604051630ccd46b160e31b8152600481019290925260248201929092526001600160f81b0319831660448201529384926001600160a01b0390921691839182906064820190565b03925af19081156106f9578a9161128d575b509360018101811161127957600101936111d2565b634e487b7160e01b8a52601160045260248afd5b90506020813d6020116112b7575b816112a86020938361335d565b8101031261054b57515f611264565b3d915061129b565b969597909193509891986112e060038901546112da89613f00565b90613f56565b600389015560ff600284015460401c166112f981613437565b61154f576001600160401b038854168952600b6020526040892099895b63ffffffff60028d015460201c1663ffffffff82161161153257875461134163ffffffff8316614305565b8115611522575b8015611510575b60209060646001600160a01b035f8051602061435c8339815191525416935f6040519586948593630d7c62eb60e31b8552600485015260248401528160448401525af1908115611505578c918b915f916114cc575b505f8051602061435c83398151915254604051630ccd46b160e31b8152600481019390935260248301919091526001600160f81b031983166044830152909160209183916064918391906001600160a01b03165af19081156114c1578b9183918e91611487575b5061145691600261143961142161144094613f00565b61142d84848901613c14565b90549060031b1c613f56565b9401613c14565b819391549060031b91821b915f19901b19161790565b905563ffffffff808216146114735763ffffffff16600101611316565b634e487b7160e01b8b52601160045260248bfd5b925050506020813d6020116114b9575b816114a46020938361335d565b8101031261054b57518a90829061145661140b565b3d9150611497565b6040513d8e823e3d90fd5b925050506020813d6020116114fd575b816114e96020938361335d565b8101031261054b57518b908a9060206113a4565b3d91506114dc565b6040513d5f823e3d90fd5b50602061151b6142b4565b905061134f565b905061152c6142b4565b90611348565b5094919795509550611545919850613ba5565b919490939461119f565b959198939096946115cf60208a61156860028a01613bd2565b90549060031b1c84548115611931575b8015611923575b826001600160a01b035f8051602061435c83398151915254169260405196879586948593632a1f7ab160e21b8552600485019192604091949360608401958452602084015260ff60f81b16910152565b03925af19081156106f9578a916118f1575b5060206115f060028901613bd2565b90549060031b1c60646001600160a01b035f8051602061435c8339815191525416938d604051958694859363cb3b940760e01b85528b6004860152602485015260448401525af19081156106f9578a916118bf575b5061165561144060028901613bd2565b905561167461166660028801613be4565b905483549160031b1c613f56565b602061168260028901613be4565b90549060031b1c60646001600160a01b035f8051602061435c8339815191525416938d604051958694859363cb3b940760e01b85528b6004860152602485015260448401525af19081156106f957908a92918391611887575b5091602091611768936116f361144060028c01613be4565b905561170160028a01613bfc565b90549060031b1c90548115611877575b8015611869575b826001600160a01b035f8051602061435c8339815191525416926040519687958694859363a86e9de560e01b8552600485019192604091949360608401958452602084015260ff60f81b16910152565b03925af1801561185e57899061182b575b60209150606461178b60028901613bfc565b90549060031b1c948b6001600160a01b035f8051602061435c8339815191525416604051978895869463cb3b940760e01b86526004860152602485015260448401525af180156107795788906117f7575b61154592506117f061144060028801613bfc565b9055613ba5565b506020823d602011611823575b816118116020938361335d565b8101031261054b5761154591516117dc565b3d9150611804565b506020813d602011611856575b816118456020938361335d565b8101031261054b5760209051611779565b3d9150611838565b6040513d8b823e3d90fd5b506118726142b4565b611718565b90506118816142b4565b90611711565b9250506020823d6020116118b7575b816118a36020938361335d565b8101031261054b57905189919060206116db565b3d9150611896565b90506020813d6020116118e9575b816118da6020938361335d565b8101031261054b57515f611645565b3d91506118cd565b90506020813d60201161191b575b8161190c6020938361335d565b8101031261054b57515f6115e1565b3d91506118ff565b5061192c6142b4565b61157f565b905061193b6142b4565b90611578565b8385889363ffffffff61195b600485015492828416613bba565b169063ffffffff19161760048301556119796003830154309061423a565b61199560038301546001600160a01b03845460401c169061423a565b835b60028301548110156119f357806119c36119b660019360028701613c14565b3091549060031b1c61423a565b6119ed6119d38260028701613c14565b9054865460401c6001600160a01b03169160031b1c61423a565b01611997565b506004820154925490929063ffffffff8216818103611a5b5750509160209160046401000000007f4ceed57a97e26038270b156f5920479e6f3e9c4f1baa29470699b228d11657ac9564ff000000001916179101556001600160401b0360405191168152a180f35b606093507ffd463f5f8ea810259e60a8d43e0d3ea145fcac45521e164bd65dc6b9a4d8d563949250906001600160401b039182604051941684526020840152166040820152a180f35b9093506020813d602011611ad0575b81611ac06020938361335d565b8101031261054b5751925f61118f565b3d9150611ab3565b63ffffffff16900392505f80611140565b634e487b7160e01b88526011600452602488fd5b60405163cd74a76b60e01b81526001600160401b0384166004820152602490fd5b604051634959d18760e01b81526001600160401b039091166004820152602490fd5b60405163e5267a5f60e01b81526001600160401b039091166004820152602490fd5b503461012b57602080600319360112611ca557611b7d613275565b918060408051611b8c81613342565b60608152828582015201526001600160401b0380600f5416931692831015611c8c57828152601082526001600160a01b03604082205460401c163303611c7357808360409252601083522090600482015490600160ff83831c16611bef81613437565b03611c5a5760609350600383015491611c4863ffffffff92611c1f600260405197611c1989613342565b01613b57565b86528086019485528360408701931683526040519687968288525191870152608086019061363d565b92516040850152511660608301520390f35b604051631161704360e11b815260048101859052602490fd5b604051634959d18760e01b815260048101849052602490fd5b60405163e5267a5f60e01b815260048101849052602490fd5b5080fd5b503461012b57602036600319011261012b576001600160401b03611ccb613275565b8260c0604051611cda81613327565b828152826020820152606060408201526060808201528260808201528260a082015201521681526010602052604081209060405191611d1883613327565b6001600160a01b0381546001600160401b038116855260401c16602084015260018101805490611d4782613420565b91611d55604051938461335d565b808352602083019185526020852085925b828410611ebe57878760ff600489896040860152611d8660028201613b57565b606086015260038101546080860152015463ffffffff811660a0850152611db1828260201c16613437565b60201c1660c08301526040519182916020835261010083016001600160401b0383511660208501526001600160a01b03602084015116604085015260408301519160e06060860152825180925260206101208601930191815b818310611e5f5750505050611e3160c0916060840151601f1986830301608087015261363d565b91608081015160a085015263ffffffff60a082015116828501520151611e5681613437565b60e08301520390f35b91939092809596505160ff815116825260208101516004811015611eaa578263ffffffff60406020946060948660019801520151166040820152019501930190918695949392611e0a565b634e487b7160e01b84526021600452602484fd5b604097969751611ecd81613342565b825460ff80821683528160081c166004811015611f1057928263ffffffff602093600196858897015260101c166040820152815201920193019290969596611d66565b634e487b7160e01b8b52602160045260248bfd5b503461012b57602080600319360112611ca557611f3f613275565b9060405191611f4d836132d6565b8360a060405194611f5d8661330c565b6060958681528686820152836040820152838782015283608082015281528585820152826040820152828682015282608082015201526001600160401b0380600a5416911690811015612119578352600b8152604083209260405192611fc2846132d6565b611fcb85613455565b84526003946003810195865490611fe182613420565b97611fef604051998a61335d565b8289528552858520859087808b015b8584106120fb57508901998a525050505060048101546040860190815260058201548387019081526006909201549260808701929160ff8516612040816135e6565b845263ffffffff958660a08a019660081c16865261206f60405199898b525160c08a8c015260e08b019061353c565b995197601f1990818b8d030160408c0152895191828d528c8280808301928660051b01019c0194915b8483106120cd575050505050508798505190870152516080860152516120bd816135e6565b60a0850152511660c08301520390f35b90919293949b848f6120eb8f9360019486859483030188525161353c565b9e01930193019194939290612098565b600191859161210985613455565b8152019201920191908890611ffe565b6024906040519063277e73b360e11b82526004820152fd5b503461012b576020908160031936011261012b5761214d613275565b916001600160401b0380600f5416931692831015611c8c57828252601081526001600160a01b0380604084205460401c16330361224757838352601082523390604084205460401c1603611c735782825260108152604082209282845560018085018054905f815581612224575b5050600285018054905f815581612208575b505050826004855f60037f6447dad21daa2a79315bced174e6f1b1dd3555cfcfdc7bd7fa34191f64795e80979801550155604051908152a180f35b5f52835f20908101905b818110156121cd575f81558201612212565b5f5281845f20918201915b82811061223c57506121bb565b5f815501829061222f565b604051634959d18760e01b815260048101859052602490fd5b503461012b57604036600319011261012b5761227a6135f0565b6001600160a01b031681526011602052604081208054602435929083101561012b5760206001600160401b036122b0858561361c565b9190546040519260031b1c168152f35b503461012b57604036600319011261012b576004359060248035801590811503610832576001600160a01b0391827f93ab6e17f2c461cce6ea5d4ec117e51dda77a64affc2b2c05f8cd440def0e700541633036125b15784845260209160088352604085209560405180858954918281520198885285882090885b81811061259d57505050612355816123659899038261335d565b6001600160401b03968791613967565b511694818852600785526040882060405190818782549182815201918b52878b20908b5b898282106125875750505050906123a5816123aa93038261335d565b613967565b511691612554578652600483526123c360408720613b57565b908151945f1995868101908111612541576123dd90613ae5565b9460015b8451811015612427576123f48186613974565b51888201828111612414579061240d600193928a613974565b52016123e1565b634e487b7160e01b8c526011600452878cfd5b508786866124358c97613967565b5160405190612443826132f1565b8152848101928352858852600c855260408820805490600160401b82101561252e579061247591600182018155613670565b91909161251b57906001915181550191519081519384116125095750839061249d8484613b17565b01908652828620865b8381106124f75750505050818452600e81526040842090835f525260405f20600160ff198254161790557fb0674b169738a11731fb64a0088f28388c55ee0e0e0fdab53943bc2335c7f3848380a380f35b825182820155918401916001016124a6565b634e487b7160e01b8852604160045287fd5b634e487b7160e01b895260048990528289fd5b634e487b7160e01b8a526041600452838afd5b634e487b7160e01b895260116004528489fd5b50604051630f1bb9e760e41b81526001600160401b03851660048201526001600160a01b03919091166024820152604490fd5b8354871685529093019260019283019201612389565b82548b52998701996001928301920161233b565b8380fd5b503461012b578060031936011261012b5760206001600160401b03600f5416604051908152f35b503461012b57604036600319011261012b576001600160a01b036040612600613275565b926001600160401b03612611613606565b94168152600e6020522091165f52602052602060ff60405f2054166040519015158152f35b503461012b57604036600319011261012b576126506135f0565b6001600160401b039190602435838116810361054b5761266f91613988565b604051916020808401906020855283518092526020604086019401925b8281106126995785850386f35b835187168552938101939281019260010161268c565b503461012b57602036600319011261012b576126c9613275565b6001600160401b0380600a541691169081101561211957808252600d60205260408220335f5260205260ff60405f2054161561275c57808252600b602052600660408320018054600260ff821661271f816135e6565b03612728578380f35b60ff191660021790557f14883c8b2ec2887f4d5131ced01a22713b9040addbfd70ef20b904821671f1d48280a25f80808380f35b602490604051906388f9834f60e01b82526004820152fd5b503461012b57602036600319011261012b5760406127de916001600160401b0361279c613275565b168152600b602052206127ae81613455565b9063ffffffff600482015491600660058201549101549060ff82169060405196879660a0885260a088019061353c565b94602087015260408601526127f2816135e6565b606085015260081c1660808301520390f35b90503461054b5760031960a03682011261054b57600435906001600160401b03821161054b5760a09082600401923603011261054b576024356001600160401b03811161054b57612859903690600401613234565b6084939193359163ffffffff8316830361054b57600482116131f1575060643560443510156131855761288c36846136ec565b73__$2f54ce675f47f0f54c71c5a505d5110875$__90813b1561054b576040515f81806128c763b4d54fdb60e01b95868352600483016137e6565b0381865af4801561150557613172575b5086805b8481106130f557505050506001600160401b03600a54169361290a60405194612903866132d6565b36906136ec565b845261291582613420565b91612923604051938461335d565b80835260051b8101602083013682116130f15782905b8282106130c157505050509063ffffffff916020840152604435604084015260643560608401528460808401521660a0820152818352600d60205260408320335f5260205260405f20600160ff19825416179055818352600b60205260408320815180518051906001600160401b0382116130ad576129b8845461328b565b601f811161307d575b50602090601f8311600114613015576129f19291889183612cdd575b50508160011b915f199060031b1c19161790565b82555b600182016020820151906020825192612a0d84846138f4565b019087526020872087915b838310612f0c5750505050600282019063ffffffff6040820151169082549168ff0000000000000000608067ffffffff00000000606085015160201b16930151612a6181613437565b612a6a81613437565b60401b169268ffffffffffffffffff191617171790556020820151805190600160401b8211612ef8576003830154826003850155808310612e4f575b50602001906003830186526020862086925b828410612b75575050505060069060408301516004820155606083015160058201550190608081015190612aeb826135e6565b612af4826135e6565b60ff64ffffffff0060a0855493015160081b1692169064ffffffffff191617179055600a546001600160401b03612b2c81831661393b565b16906001600160401b03191617600a55604051604435815260643560208201527f49db07058829aa7f58f443df35f9612682dc944257eb8d87915f0017424243f360403392a380f35b805180518051906001600160401b038211612e3b57612b94855461328b565b601f8111612e0b575b50602090601f8311600114612da357612bcc92918c9183612cdd5750508160011b915f199060031b1c19161790565b83555b600183016020820151906020825192612be884846138f4565b01908b5260208b20908b905b838210612c6f57505050506020600192600392600286019063ffffffff6040820151169082549168ff0000000000000000608067ffffffff000000006060850151891b16930151612c4481613437565b612c4d81613437565b60401b169268ffffffffffffffffff1916171717905501920193019290612ab8565b80518051906001600160401b038211612d8f578e90612c8e865461328b565b601f8111612d54575b50602091601f8411600114612ce8578360019592946020948796612cce9492612cdd5750508160011b915f199060031b1c19161790565b86555b01930191019091612bf4565b015190505f806129dd565b919086835260208320925b601f1985168110612d3c575083602093600196938796938794601f19811610612d24575b505050811b018655612cd1565b01515f1960f88460031b161c191690555f8080612d17565b91926020600181928685015181550194019201612cf3565b612d7f9087845260208420601f860160051c81019160208710612d85575b601f0160051c0190613896565b5f612c97565b9091508190612d72565b634e487b7160e01b8f52604160045260248ffd5b9190858c5260208c20908c935b601f1984168510612df0576001945083601f19811610612dd8575b505050811b018355612bcf565b01515f1960f88460031b161c191690555f8080612dcb565b81810151835560209485019460019093019290910190612db0565b612e3590868d5260208d20601f850160051c81019160208610612d8557601f0160051c0190613896565b5f612b9d565b634e487b7160e01b8b52604160045260248bfd5b6003818102048103612ee4576003838102048303612ee457600384018752602087208360030281015b8260030282018110612e8b575050612aa6565b612e94816138ac565b60018101545f600183015580612eb5575b5080896002600393015501612e78565b600182015f5260205f2090815b8183018110612ed2575050612ea5565b80612ede6001926138ac565b01612ec2565b634e487b7160e01b87526011600452602487fd5b634e487b7160e01b86526041600452602486fd5b80518051906001600160401b038211612e3b57612f29845461328b565b601f8111612fe5575b506020908b601f8411600114612f79578360019592946020948796612f6a9492612cdd5750508160011b915f199060031b1c19161790565b85555b01920192019190612a18565b85905260208c2091908c5b601f1985168110612fcd575083602093600196938796938794601f19811610612fb5575b505050811b018555612f6d565b01515f1960f88460031b161c191690555f8080612fa8565b91926020600181928685015181550194019201612f84565b61300f90858d5260208d20601f850160051c81019160208610612d8557601f0160051c0190613896565b5f612f32565b9190848852602088209088935b601f1984168510613062576001945083601f1981161061304a575b505050811b0182556129f4565b01515f1960f88460031b161c191690555f808061303d565b81810151835560209485019460019093019290910190613022565b6130a79085895260208920601f850160051c81019160208610612d8557601f0160051c0190613896565b5f6129c1565b634e487b7160e01b87526041600452602487fd5b81356001600160401b0381116130ed576020916130e28392369088016136ec565b815201910190612939565b8980fd5b8780fd5b8060051b880135609e1989360301811215610832576131179036908a016136ec565b843b1561083257826131369160405180938192888352600483016137e6565b0381885af4908115613167578391613153575b50506001016128db565b61315c906132c3565b611ca557815f613149565b6040513d85823e3d90fd5b61317d9197506132c3565b5f955f6128d7565b604051632c3efebd60e01b815260206004820152602760248201527f53746172742074696d652073686f756c64206265206c657373207468616e206560448201527f6e642074696d65000000000000000000000000000000000000000000000000006064820152608490fd5b632c3efebd60e01b815260206004820152601960248201527f6d6178206d657461206f7074696f6e73206578636565646564000000000000006044820152606490fd5b9181601f8401121561054b578235916001600160401b03831161054b576020808501948460051b01011161054b57565b359063ffffffff8216820361054b57565b600435906001600160401b038216820361054b57565b90600182811c921680156132b9575b60208310146132a557565b634e487b7160e01b5f52602260045260245ffd5b91607f169161329a565b6001600160401b038111610d4457604052565b60c081019081106001600160401b03821117610d4457604052565b604081019081106001600160401b03821117610d4457604052565b60a081019081106001600160401b03821117610d4457604052565b60e081019081106001600160401b03821117610d4457604052565b606081019081106001600160401b03821117610d4457604052565b90601f801991011681019081106001600160401b03821117610d4457604052565b9060405191825f82546133908161328b565b908184526020946001916001811690815f146133fe57506001146133c0575b5050506133be9250038361335d565b565b5f90815285812095935091905b8183106133e65750506133be93508201015f80806133af565b855488840185015294850194879450918301916133cd565b925050506133be94925060ff191682840152151560051b8201015f80806133af565b6001600160401b038111610d445760051b60200190565b6002111561344157565b634e487b7160e01b5f52602160045260245ffd5b906040516134628161330c565b809261346d8161337e565b8252600180820190815461348081613420565b9261348e604051948561335d565b8184525f90815260208082208186015b8484106134e357505050505050600260809260ff926020860152015463ffffffff80821660408601528160201c16606085015260401c16916134df83613437565b0152565b858381926134f08561337e565b81520192019301929061349e565b91908251928382525f5b848110613528575050825f602080949584010152601f8019910116010190565b602081830181015184830182015201613508565b90613550825160a0835260a08301906134fe565b916020928382015193838203818501528451908183528083019281808460051b8301019701935f915b8483106135b85750505050505060808160408293015163ffffffff809116604086015260608201511660608501520151916135b383613437565b015290565b90919293949784806135d6600193601f198682030187528c516134fe565b9a01930193019194939290613579565b6003111561344157565b600435906001600160a01b038216820361054b57565b602435906001600160a01b038216820361054b57565b9190918054831015610e39575f52601860205f208360021c019260031b1690565b9081518082526020808093019301915f5b82811061365c575050505090565b83518552938101939281019260010161364e565b8054821015610e39575f5260205f209060011b01905f90565b9291926001600160401b038211610d4457604051916136b2601f8201601f19166020018461335d565b82948184528183011161054b578281602093845f960137010152565b9080601f8301121561054b578160206136e993359101613689565b90565b91909160a08184031261054b57604051906137068261330c565b81938135906001600160401b039182811161054b57816137279185016136ce565b84526020908184013583811161054b57840181601f8201121561054b57803561374f81613420565b9461375d604051968761335d565b818652848087019260051b8401019380851161054b57858401925b8584106137c157505050505050906080929184015261379960408201613264565b60408401526137aa60608201613264565b6060840152013590600282101561054b5760800152565b833583811161054b5787916137db848480948a01016136ce565b815201930192613778565b602091828252613801815160a08585015260c08401906134fe565b928082015193601f19918285830301604086015285519182815281810182808560051b8401019801945f925b8584106138685750505050505050608081604060a093015163ffffffff8091166060860152606082015116828501520151916135b383613437565b909192939495988580613885838686600196030188528d516134fe565b9b019401940192959493919061382d565b8181106138a1575050565b5f8155600101613896565b6138b6815461328b565b90816138c0575050565b81601f5f93116001146138d1575055565b9080839182526138f0601f60208420940160051c840160018501613896565b5555565b90600160401b8111610d445781549181815582821061391257505050565b5f5260205f2091820191015b818110613929575050565b806139356001926138ac565b0161391e565b9060016001600160401b038093160191821161395357565b634e487b7160e01b5f52601160045260245ffd5b805115610e395760200190565b8051821015610e395760209160051b010190565b6001600160a01b03165f526011602091601160205260409260405f20935f945f938154945b858110613a8657506139be87613420565b966139cc604051988961335d565b808852601f196139db82613420565b013660208a013715613a7d575f935f5b8681106139fd57505050505050505090565b613a07818561361c565b6001600160401b03809254600392831b1c165f526010845281875f20541682861614613a38575b50506001016139eb565b613a45838799949961361c565b9054911b1c16613a55828b613974565b5260018101809111613a6a579460015f613a2e565b87634e487b7160e01b5f5260045260245ffd5b50505050505090565b613a90818461361c565b906001600160401b03918291549060031b1c165f526010865280855f20541690831614613ac0575b6001016139ad565b9660018101809111613ad25796613ab8565b86634e487b7160e01b5f5260045260245ffd5b90613aef82613420565b613afc604051918261335d565b8281528092613b0d601f1991613420565b0190602036910137565b90600160401b8111610d4457815491818155828210613b3557505050565b5f5260205f2091820191015b818110613b4c575050565b5f8155600101613b41565b90604051918281549182825260209260208301915f5260205f20935f905b828210613b8b575050506133be9250038361335d565b855484526001958601958895509381019390910190613b75565b90600163ffffffff8093160191821161395357565b91909163ffffffff8080941691160191821161395357565b805415610e39575f5260205f20905f90565b805460011015610e39575f52600160205f2001905f90565b805460021015610e39575f52600260205f2001905f90565b8054821015610e39575f5260205f2001905f90565b6001600160401b0380600a5416911690811015612119575f526020600c60205260409060405f20805491613c5c83613420565b93613c6a604051958661335d565b83855260208501925f5260205f20905f935b858510613c8d575050505050505190565b6002846001928451613c9e816132f1565b86548152613cad858801613b57565b83820152815201930194019391613c7c565b8054821015610e39575f52600360205f20910201905f90565b81549160ff92838160081c169060049182811015613e585715613e6b57508154848160081c1682811015613e5857600114613d945750815490848260081c169080821015613d815750600214613d555750546136e99263ffffffff92613d4391831690600101613c14565b9290549160101c169160031b1c61415e565b9050613d6f63ffffffff9260016136e99584169101613c14565b9290549160101c169160031b1c6140e6565b602190634e487b7160e01b5f525260245ffd5b93613daa91925092600160209486169101613c14565b90549060031b1c908115613e44575b6064905f6001600160a01b035f8051602061435c833981519152541663ffffffff6040519788968795631927108160e01b875286015260101c166024840152600160f81b60448401525af1908115611505575f91613e15575090565b90506020813d602011613e3c575b81613e306020938361335d565b8101031261054b575190565b3d9150613e23565b90506064613e506142b4565b919050613db9565b602183634e487b7160e01b5f525260245ffd5b93613e8191925092600160209486169101613c14565b90549060031b1c908115613eec575b6064905f6001600160a01b035f8051602061435c833981519152541663ffffffff6040519788968795630d7c62eb60e31b875286015260101c166024840152600160f81b60448401525af1908115611505575f91613e15575090565b90506064613ef86142b4565b919050613e90565b5f8051602061435c8339815191525460405163025f346960e51b81526004810192909252600160fa1b6024830152602090829060449082905f906001600160a01b03165af1908115611505575f91613e15575090565b908115613fcb575b8015613fb9575b60209060646001600160a01b035f8051602061435c8339815191525416935f604051958694859363f953e42760e01b8552600485015260248401528160448401525af1908115611505575f91613e15575090565b506020613fc46142b4565b9050613f65565b9050613fd56142b4565b90613f5e565b602061402c926001600160a01b0392835f8051602061435c8339815191525416905f6040518097819582946302e817ff60e41b845260048401523360248401526080604484015260848301906134fe565b600160fa1b606483015203925af1918215611505575f926140b2575b507fed8d60e34876f751cc8b014c560745351147d9de11b9347c854e881b128ea6005416803b1561054b576040516346ce4e4960e11b815260048101839052336024820152905f908290604490829084905af18015611505576140a9575090565b6136e9906132c3565b9091506020813d6020116140de575b816140ce6020938361335d565b8101031261054b5751905f614048565b3d91506140c1565b63ffffffff91602091801561414c575b6064905f6001600160a01b035f8051602061435c8339815191525416604051968795869463052896f160e01b86526004860152166024840152600160f81b60448401525af1908115611505575f91613e15575090565b5060646141576142b4565b90506140f6565b63ffffffff9160209180156141c4575b6064905f6001600160a01b035f8051602061435c833981519152541660405196879586946334a6d7b960e11b86526004860152166024840152600160f81b60448401525af1908115611505575f91613e15575090565b5060646141cf6142b4565b905061416e565b9081518082526020808093019301915f5b8281106141f5575050505090565b8351855293810193928101926001016141e7565b5f52600460205260405f20805490600160401b821015610d44578161144091600161423694018155613c14565b9055565b6001600160a01b037fed8d60e34876f751cc8b014c560745351147d9de11b9347c854e881b128ea600541691823b1561054b57604051631974142760e21b815260048101929092526001600160a01b03166024820152905f908290604490829084905af18015611505576142ab5750565b6133be906132c3565b5f60206001600160a01b035f8051602061435c8339815191525416604460405180948193631ce2e8d760e31b8352816004840152600160fa1b60248401525af1908115611505575f91613e15575090565b5f8051602061435c83398151915254604051631ce2e8d760e31b81526004810192909252600160fa1b6024830152602090829060449082905f906001600160a01b03165af1908115611505575f91613e1557509056feed8d60e34876f751cc8b014c560745351147d9de11b9347c854e881b128ea601a164736f6c6343000818000a",
  "libraries": {
    "QuestionSpecLib": "0x0Ea37D3264b940C94D68DA1EB34C291D62Ba8Ab5"
  },
  "devdoc": {
    "kind": "dev",
    "methods": {},
    "version": 1
  },
  "userdoc": {
    "kind": "user",
    "methods": {},
    "version": 1
  },
  "storageLayout": {
    "storage": [
      {
        "astId": 2102,
        "contract": "contracts/Analytic.sol:Analytic",
        "label": "paramsEBool",
        "offset": 0,
        "slot": "0",
        "type": "t_mapping(t_uint256,t_array(t_userDefinedValueType(ebool)4844)dyn_storage)"
      },
      {
        "astId": 2108,
        "contract": "contracts/Analytic.sol:Analytic",
        "label": "paramsEUint4",
        "offset": 0,
        "slot": "1",
        "type": "t_mapping(t_uint256,t_array(t_userDefinedValueType(euint4)4846)dyn_storage)"
      },
      {
        "astId": 2114,
        "contract": "contracts/Analytic.sol:Analytic",
        "label": "paramsEUint8",
        "offset": 0,
        "slot": "2",
        "type": "t_mapping(t_uint256,t_array(t_userDefinedValueType(euint8)4848)dyn_storage)"
      },
      {
        "astId": 2120,
        "contract": "contracts/Analytic.sol:Analytic",
        "label": "paramsEUint16",
        "offset": 0,
        "slot": "3",
        "type": "t_mapping(t_uint256,t_array(t_userDefinedValueType(euint16)4850)dyn_storage)"
      },
      {
        "astId": 2126,
        "contract": "contracts/Analytic.sol:Analytic",
        "label": "paramsEUint32",
        "offset": 0,
        "slot": "4",
        "type": "t_mapping(t_uint256,t_array(t_userDefinedValueType(euint32)4852)dyn_storage)"
      },
      {
        "astId": 2132,
        "contract": "contracts/Analytic.sol:Analytic",
        "label": "paramsEUint64",
        "offset": 0,
        "slot": "5",
        "type": "t_mapping(t_uint256,t_array(t_userDefinedValueType(euint64)4854)dyn_storage)"
      },
      {
        "astId": 2138,
        "contract": "contracts/Analytic.sol:Analytic",
        "label": "paramsEAddress",
        "offset": 0,
        "slot": "6",
        "type": "t_mapping(t_uint256,t_array(t_userDefinedValueType(eaddress)4860)dyn_storage)"
      },
      {
        "astId": 2143,
        "contract": "contracts/Analytic.sol:Analytic",
        "label": "paramsAddress",
        "offset": 0,
        "slot": "7",
        "type": "t_mapping(t_uint256,t_array(t_address)dyn_storage)"
      },
      {
        "astId": 2148,
        "contract": "contracts/Analytic.sol:Analytic",
        "label": "paramsUint256",
        "offset": 0,
        "slot": "8",
        "type": "t_mapping(t_uint256,t_array(t_uint256)dyn_storage)"
      },
      {
        "astId": 2153,
        "contract": "contracts/Analytic.sol:Analytic",
        "label": "requestedHandles",
        "offset": 0,
        "slot": "9",
        "type": "t_mapping(t_uint256,t_array(t_uint256)dyn_storage)"
      },
      {
        "astId": 34,
        "contract": "contracts/Analytic.sol:Analytic",
        "label": "nextQuestionId",
        "offset": 0,
        "slot": "10",
        "type": "t_uint64"
      },
      {
        "astId": 39,
        "contract": "contracts/Analytic.sol:Analytic",
        "label": "questions",
        "offset": 0,
        "slot": "11",
        "type": "t_mapping(t_uint64,t_struct(Question)1820_storage)"
      },
      {
        "astId": 45,
        "contract": "contracts/Analytic.sol:Analytic",
        "label": "questionAnswers",
        "offset": 0,
        "slot": "12",
        "type": "t_mapping(t_uint64,t_array(t_struct(Answer)1867_storage)dyn_storage)"
      },
      {
        "astId": 51,
        "contract": "contracts/Analytic.sol:Analytic",
        "label": "questionAdmins",
        "offset": 0,
        "slot": "13",
        "type": "t_mapping(t_uint64,t_mapping(t_address,t_bool))"
      },
      {
        "astId": 57,
        "contract": "contracts/Analytic.sol:Analytic",
        "label": "hasAnswered",
        "offset": 0,
        "slot": "14",
        "type": "t_mapping(t_uint64,t_mapping(t_address,t_bool))"
      },
      {
        "astId": 60,
        "contract": "contracts/Analytic.sol:Analytic",
        "label": "nextQueryRequestId",
        "offset": 0,
        "slot": "15",
        "type": "t_uint64"
      },
      {
        "astId": 65,
        "contract": "contracts/Analytic.sol:Analytic",
        "label": "queryRequests",
        "offset": 0,
        "slot": "16",
        "type": "t_mapping(t_uint64,t_struct(QueryRequest)1841_storage)"
      },
      {
        "astId": 70,
        "contract": "contracts/Analytic.sol:Analytic",
        "label": "userQueries",
        "offset": 0,
        "slot": "17",
        "type": "t_mapping(t_address,t_array(t_uint64)dyn_storage)"
      }
    ],
    "types": {
      "t_address": {
        "encoding": "inplace",
        "label": "address",
        "numberOfBytes": "20"
      },
      "t_array(t_address)dyn_storage": {
        "base": "t_address",
        "encoding": "dynamic_array",
        "label": "address[]",
        "numberOfBytes": "32"
      },
      "t_array(t_string_storage)dyn_storage": {
        "base": "t_string_storage",
        "encoding": "dynamic_array",
        "label": "string[]",
        "numberOfBytes": "32"
      },
      "t_array(t_struct(Answer)1867_storage)dyn_storage": {
        "base": "t_struct(Answer)1867_storage",
        "encoding": "dynamic_array",
        "label": "struct IAnalytic.Answer[]",
        "numberOfBytes": "32"
      },
      "t_array(t_struct(Predicate)1859_storage)dyn_storage": {
        "base": "t_struct(Predicate)1859_storage",
        "encoding": "dynamic_array",
        "label": "struct IAnalytic.Predicate[]",
        "numberOfBytes": "32"
      },
      "t_array(t_struct(QuestionSpec)1732_storage)dyn_storage": {
        "base": "t_struct(QuestionSpec)1732_storage",
        "encoding": "dynamic_array",
        "label": "struct QuestionSpecLib.QuestionSpec[]",
        "numberOfBytes": "32"
      },
      "t_array(t_uint256)dyn_storage": {
        "base": "t_uint256",
        "encoding": "dynamic_array",
        "label": "uint256[]",
        "numberOfBytes": "32"
      },
      "t_array(t_uint64)dyn_storage": {
        "base": "t_uint64",
        "encoding": "dynamic_array",
        "label": "uint64[]",
        "numberOfBytes": "32"
      },
      "t_array(t_userDefinedValueType(eaddress)4860)dyn_storage": {
        "base": "t_userDefinedValueType(eaddress)4860",
        "encoding": "dynamic_array",
        "label": "eaddress[]",
        "numberOfBytes": "32"
      },
      "t_array(t_userDefinedValueType(ebool)4844)dyn_storage": {
        "base": "t_userDefinedValueType(ebool)4844",
        "encoding": "dynamic_array",
        "label": "ebool[]",
        "numberOfBytes": "32"
      },
      "t_array(t_userDefinedValueType(euint16)4850)dyn_storage": {
        "base": "t_userDefinedValueType(euint16)4850",
        "encoding": "dynamic_array",
        "label": "euint16[]",
        "numberOfBytes": "32"
      },
      "t_array(t_userDefinedValueType(euint32)4852)dyn_storage": {
        "base": "t_userDefinedValueType(euint32)4852",
        "encoding": "dynamic_array",
        "label": "euint32[]",
        "numberOfBytes": "32"
      },
      "t_array(t_userDefinedValueType(euint4)4846)dyn_storage": {
        "base": "t_userDefinedValueType(euint4)4846",
        "encoding": "dynamic_array",
        "label": "euint4[]",
        "numberOfBytes": "32"
      },
      "t_array(t_userDefinedValueType(euint64)4854)dyn_storage": {
        "base": "t_userDefinedValueType(euint64)4854",
        "encoding": "dynamic_array",
        "label": "euint64[]",
        "numberOfBytes": "32"
      },
      "t_array(t_userDefinedValueType(euint8)4848)dyn_storage": {
        "base": "t_userDefinedValueType(euint8)4848",
        "encoding": "dynamic_array",
        "label": "euint8[]",
        "numberOfBytes": "32"
      },
      "t_bool": {
        "encoding": "inplace",
        "label": "bool",
        "numberOfBytes": "1"
      },
      "t_enum(PredicateOp)1796": {
        "encoding": "inplace",
        "label": "enum IAnalytic.PredicateOp",
        "numberOfBytes": "1"
      },
      "t_enum(QuestionState)1803": {
        "encoding": "inplace",
        "label": "enum IAnalytic.QuestionState",
        "numberOfBytes": "1"
      },
      "t_enum(QuestionType)1719": {
        "encoding": "inplace",
        "label": "enum QuestionSpecLib.QuestionType",
        "numberOfBytes": "1"
      },
      "t_enum(RequestState)1799": {
        "encoding": "inplace",
        "label": "enum IAnalytic.RequestState",
        "numberOfBytes": "1"
      },
      "t_mapping(t_address,t_array(t_uint64)dyn_storage)": {
        "encoding": "mapping",
        "key": "t_address",
        "label": "mapping(address => uint64[])",
        "numberOfBytes": "32",
        "value": "t_array(t_uint64)dyn_storage"
      },
      "t_mapping(t_address,t_bool)": {
        "encoding": "mapping",
        "key": "t_address",
        "label": "mapping(address => bool)",
        "numberOfBytes": "32",
        "value": "t_bool"
      },
      "t_mapping(t_uint256,t_array(t_address)dyn_storage)": {
        "encoding": "mapping",
        "key": "t_uint256",
        "label": "mapping(uint256 => address[])",
        "numberOfBytes": "32",
        "value": "t_array(t_address)dyn_storage"
      },
      "t_mapping(t_uint256,t_array(t_uint256)dyn_storage)": {
        "encoding": "mapping",
        "key": "t_uint256",
        "label": "mapping(uint256 => uint256[])",
        "numberOfBytes": "32",
        "value": "t_array(t_uint256)dyn_storage"
      },
      "t_mapping(t_uint256,t_array(t_userDefinedValueType(eaddress)4860)dyn_storage)": {
        "encoding": "mapping",
        "key": "t_uint256",
        "label": "mapping(uint256 => eaddress[])",
        "numberOfBytes": "32",
        "value": "t_array(t_userDefinedValueType(eaddress)4860)dyn_storage"
      },
      "t_mapping(t_uint256,t_array(t_userDefinedValueType(ebool)4844)dyn_storage)": {
        "encoding": "mapping",
        "key": "t_uint256",
        "label": "mapping(uint256 => ebool[])",
        "numberOfBytes": "32",
        "value": "t_array(t_userDefinedValueType(ebool)4844)dyn_storage"
      },
      "t_mapping(t_uint256,t_array(t_userDefinedValueType(euint16)4850)dyn_storage)": {
        "encoding": "mapping",
        "key": "t_uint256",
        "label": "mapping(uint256 => euint16[])",
        "numberOfBytes": "32",
        "value": "t_array(t_userDefinedValueType(euint16)4850)dyn_storage"
      },
      "t_mapping(t_uint256,t_array(t_userDefinedValueType(euint32)4852)dyn_storage)": {
        "encoding": "mapping",
        "key": "t_uint256",
        "label": "mapping(uint256 => euint32[])",
        "numberOfBytes": "32",
        "value": "t_array(t_userDefinedValueType(euint32)4852)dyn_storage"
      },
      "t_mapping(t_uint256,t_array(t_userDefinedValueType(euint4)4846)dyn_storage)": {
        "encoding": "mapping",
        "key": "t_uint256",
        "label": "mapping(uint256 => euint4[])",
        "numberOfBytes": "32",
        "value": "t_array(t_userDefinedValueType(euint4)4846)dyn_storage"
      },
      "t_mapping(t_uint256,t_array(t_userDefinedValueType(euint64)4854)dyn_storage)": {
        "encoding": "mapping",
        "key": "t_uint256",
        "label": "mapping(uint256 => euint64[])",
        "numberOfBytes": "32",
        "value": "t_array(t_userDefinedValueType(euint64)4854)dyn_storage"
      },
      "t_mapping(t_uint256,t_array(t_userDefinedValueType(euint8)4848)dyn_storage)": {
        "encoding": "mapping",
        "key": "t_uint256",
        "label": "mapping(uint256 => euint8[])",
        "numberOfBytes": "32",
        "value": "t_array(t_userDefinedValueType(euint8)4848)dyn_storage"
      },
      "t_mapping(t_uint64,t_array(t_struct(Answer)1867_storage)dyn_storage)": {
        "encoding": "mapping",
        "key": "t_uint64",
        "label": "mapping(uint64 => struct IAnalytic.Answer[])",
        "numberOfBytes": "32",
        "value": "t_array(t_struct(Answer)1867_storage)dyn_storage"
      },
      "t_mapping(t_uint64,t_mapping(t_address,t_bool))": {
        "encoding": "mapping",
        "key": "t_uint64",
        "label": "mapping(uint64 => mapping(address => bool))",
        "numberOfBytes": "32",
        "value": "t_mapping(t_address,t_bool)"
      },
      "t_mapping(t_uint64,t_struct(QueryRequest)1841_storage)": {
        "encoding": "mapping",
        "key": "t_uint64",
        "label": "mapping(uint64 => struct IAnalytic.QueryRequest)",
        "numberOfBytes": "32",
        "value": "t_struct(QueryRequest)1841_storage"
      },
      "t_mapping(t_uint64,t_struct(Question)1820_storage)": {
        "encoding": "mapping",
        "key": "t_uint64",
        "label": "mapping(uint64 => struct IAnalytic.Question)",
        "numberOfBytes": "32",
        "value": "t_struct(Question)1820_storage"
      },
      "t_string_storage": {
        "encoding": "bytes",
        "label": "string",
        "numberOfBytes": "32"
      },
      "t_struct(Answer)1867_storage": {
        "encoding": "inplace",
        "label": "struct IAnalytic.Answer",
        "members": [
          {
            "astId": 1862,
            "contract": "contracts/Analytic.sol:Analytic",
            "label": "val",
            "offset": 0,
            "slot": "0",
            "type": "t_userDefinedValueType(euint32)4852"
          },
          {
            "astId": 1866,
            "contract": "contracts/Analytic.sol:Analytic",
            "label": "metaVals",
            "offset": 0,
            "slot": "1",
            "type": "t_array(t_userDefinedValueType(euint32)4852)dyn_storage"
          }
        ],
        "numberOfBytes": "64"
      },
      "t_struct(Predicate)1859_storage": {
        "encoding": "inplace",
        "label": "struct IAnalytic.Predicate",
        "members": [
          {
            "astId": 1853,
            "contract": "contracts/Analytic.sol:Analytic",
            "label": "metaOpt",
            "offset": 0,
            "slot": "0",
            "type": "t_uint8"
          },
          {
            "astId": 1856,
            "contract": "contracts/Analytic.sol:Analytic",
            "label": "op",
            "offset": 1,
            "slot": "0",
            "type": "t_enum(PredicateOp)1796"
          },
          {
            "astId": 1858,
            "contract": "contracts/Analytic.sol:Analytic",
            "label": "metaVal",
            "offset": 2,
            "slot": "0",
            "type": "t_uint32"
          }
        ],
        "numberOfBytes": "32"
      },
      "t_struct(QueryRequest)1841_storage": {
        "encoding": "inplace",
        "label": "struct IAnalytic.QueryRequest",
        "members": [
          {
            "astId": 1822,
            "contract": "contracts/Analytic.sol:Analytic",
            "label": "questionId",
            "offset": 0,
            "slot": "0",
            "type": "t_uint64"
          },
          {
            "astId": 1824,
            "contract": "contracts/Analytic.sol:Analytic",
            "label": "owner",
            "offset": 8,
            "slot": "0",
            "type": "t_address"
          },
          {
            "astId": 1828,
            "contract": "contracts/Analytic.sol:Analytic",
            "label": "predicates",
            "offset": 0,
            "slot": "1",
            "type": "t_array(t_struct(Predicate)1859_storage)dyn_storage"
          },
          {
            "astId": 1832,
            "contract": "contracts/Analytic.sol:Analytic",
            "label": "acc",
            "offset": 0,
            "slot": "2",
            "type": "t_array(t_userDefinedValueType(euint32)4852)dyn_storage"
          },
          {
            "astId": 1835,
            "contract": "contracts/Analytic.sol:Analytic",
            "label": "ansCount",
            "offset": 0,
            "slot": "3",
            "type": "t_userDefinedValueType(euint32)4852"
          },
          {
            "astId": 1837,
            "contract": "contracts/Analytic.sol:Analytic",
            "label": "accSteps",
            "offset": 0,
            "slot": "4",
            "type": "t_uint32"
          },
          {
            "astId": 1840,
            "contract": "contracts/Analytic.sol:Analytic",
            "label": "state",
            "offset": 4,
            "slot": "4",
            "type": "t_enum(RequestState)1799"
          }
        ],
        "numberOfBytes": "160"
      },
      "t_struct(Question)1820_storage": {
        "encoding": "inplace",
        "label": "struct IAnalytic.Question",
        "members": [
          {
            "astId": 1806,
            "contract": "contracts/Analytic.sol:Analytic",
            "label": "main",
            "offset": 0,
            "slot": "0",
            "type": "t_struct(QuestionSpec)1732_storage"
          },
          {
            "astId": 1810,
            "contract": "contracts/Analytic.sol:Analytic",
            "label": "metas",
            "offset": 0,
            "slot": "3",
            "type": "t_array(t_struct(QuestionSpec)1732_storage)dyn_storage"
          },
          {
            "astId": 1812,
            "contract": "contracts/Analytic.sol:Analytic",
            "label": "startTime",
            "offset": 0,
            "slot": "4",
            "type": "t_uint256"
          },
          {
            "astId": 1814,
            "contract": "contracts/Analytic.sol:Analytic",
            "label": "endTime",
            "offset": 0,
            "slot": "5",
            "type": "t_uint256"
          },
          {
            "astId": 1817,
            "contract": "contracts/Analytic.sol:Analytic",
            "label": "state",
            "offset": 0,
            "slot": "6",
            "type": "t_enum(QuestionState)1803"
          },
          {
            "astId": 1819,
            "contract": "contracts/Analytic.sol:Analytic",
            "label": "queryThreshold",
            "offset": 1,
            "slot": "6",
            "type": "t_uint32"
          }
        ],
        "numberOfBytes": "224"
      },
      "t_struct(QuestionSpec)1732_storage": {
        "encoding": "inplace",
        "label": "struct QuestionSpecLib.QuestionSpec",
        "members": [
          {
            "astId": 1721,
            "contract": "contracts/Analytic.sol:Analytic",
            "label": "text",
            "offset": 0,
            "slot": "0",
            "type": "t_string_storage"
          },
          {
            "astId": 1724,
            "contract": "contracts/Analytic.sol:Analytic",
            "label": "options",
            "offset": 0,
            "slot": "1",
            "type": "t_array(t_string_storage)dyn_storage"
          },
          {
            "astId": 1726,
            "contract": "contracts/Analytic.sol:Analytic",
            "label": "min",
            "offset": 0,
            "slot": "2",
            "type": "t_uint32"
          },
          {
            "astId": 1728,
            "contract": "contracts/Analytic.sol:Analytic",
            "label": "max",
            "offset": 4,
            "slot": "2",
            "type": "t_uint32"
          },
          {
            "astId": 1731,
            "contract": "contracts/Analytic.sol:Analytic",
            "label": "t",
            "offset": 8,
            "slot": "2",
            "type": "t_enum(QuestionType)1719"
          }
        ],
        "numberOfBytes": "96"
      },
      "t_uint256": {
        "encoding": "inplace",
        "label": "uint256",
        "numberOfBytes": "32"
      },
      "t_uint32": {
        "encoding": "inplace",
        "label": "uint32",
        "numberOfBytes": "4"
      },
      "t_uint64": {
        "encoding": "inplace",
        "label": "uint64",
        "numberOfBytes": "8"
      },
      "t_uint8": {
        "encoding": "inplace",
        "label": "uint8",
        "numberOfBytes": "1"
      },
      "t_userDefinedValueType(eaddress)4860": {
        "encoding": "inplace",
        "label": "eaddress",
        "numberOfBytes": "32"
      },
      "t_userDefinedValueType(ebool)4844": {
        "encoding": "inplace",
        "label": "ebool",
        "numberOfBytes": "32"
      },
      "t_userDefinedValueType(euint16)4850": {
        "encoding": "inplace",
        "label": "euint16",
        "numberOfBytes": "32"
      },
      "t_userDefinedValueType(euint32)4852": {
        "encoding": "inplace",
        "label": "euint32",
        "numberOfBytes": "32"
      },
      "t_userDefinedValueType(euint4)4846": {
        "encoding": "inplace",
        "label": "euint4",
        "numberOfBytes": "32"
      },
      "t_userDefinedValueType(euint64)4854": {
        "encoding": "inplace",
        "label": "euint64",
        "numberOfBytes": "32"
      },
      "t_userDefinedValueType(euint8)4848": {
        "encoding": "inplace",
        "label": "euint8",
        "numberOfBytes": "32"
      }
    }
  }
}